{
  "_format": "hh-sol-artifact-1",
  "contractName": "ShipmentRegistrationContract",
  "sourceName": "contracts/ShipmentRegistrationContract.sol",
  "abi": [
    {
      "inputs": [],
      "stateMutability": "nonpayable",
      "type": "constructor"
    },
    {
      "inputs": [],
      "name": "AccessControlBadConfirmation",
      "type": "error"
    },
    {
      "inputs": [
        {
          "internalType": "address",
          "name": "account",
          "type": "address"
        },
        {
          "internalType": "bytes32",
          "name": "neededRole",
          "type": "bytes32"
        }
      ],
      "name": "AccessControlUnauthorizedAccount",
      "type": "error"
    },
    {
      "anonymous": false,
      "inputs": [
        {
          "indexed": true,
          "internalType": "bytes32",
          "name": "role",
          "type": "bytes32"
        },
        {
          "indexed": true,
          "internalType": "bytes32",
          "name": "previousAdminRole",
          "type": "bytes32"
        },
        {
          "indexed": true,
          "internalType": "bytes32",
          "name": "newAdminRole",
          "type": "bytes32"
        }
      ],
      "name": "RoleAdminChanged",
      "type": "event"
    },
    {
      "anonymous": false,
      "inputs": [
        {
          "indexed": true,
          "internalType": "bytes32",
          "name": "role",
          "type": "bytes32"
        },
        {
          "indexed": true,
          "internalType": "address",
          "name": "account",
          "type": "address"
        },
        {
          "indexed": true,
          "internalType": "address",
          "name": "sender",
          "type": "address"
        }
      ],
      "name": "RoleGranted",
      "type": "event"
    },
    {
      "anonymous": false,
      "inputs": [
        {
          "indexed": true,
          "internalType": "bytes32",
          "name": "role",
          "type": "bytes32"
        },
        {
          "indexed": true,
          "internalType": "address",
          "name": "account",
          "type": "address"
        },
        {
          "indexed": true,
          "internalType": "address",
          "name": "sender",
          "type": "address"
        }
      ],
      "name": "RoleRevoked",
      "type": "event"
    },
    {
      "anonymous": false,
      "inputs": [
        {
          "indexed": true,
          "internalType": "uint256",
          "name": "shipmentId",
          "type": "uint256"
        },
        {
          "indexed": false,
          "internalType": "uint256",
          "name": "productId",
          "type": "uint256"
        },
        {
          "indexed": true,
          "internalType": "address",
          "name": "distributor",
          "type": "address"
        },
        {
          "indexed": false,
          "internalType": "string",
          "name": "origin",
          "type": "string"
        },
        {
          "indexed": false,
          "internalType": "string",
          "name": "destination",
          "type": "string"
        },
        {
          "indexed": false,
          "internalType": "string",
          "name": "transportCompany",
          "type": "string"
        },
        {
          "indexed": false,
          "internalType": "uint256",
          "name": "quantity",
          "type": "uint256"
        },
        {
          "indexed": false,
          "internalType": "string",
          "name": "notes",
          "type": "string"
        }
      ],
      "name": "ShipmentCreated",
      "type": "event"
    },
    {
      "anonymous": false,
      "inputs": [
        {
          "indexed": true,
          "internalType": "uint256",
          "name": "shipmentId",
          "type": "uint256"
        },
        {
          "indexed": false,
          "internalType": "enum ShipmentRegistrationContract.Status",
          "name": "newStatus",
          "type": "uint8"
        }
      ],
      "name": "ShipmentStatusUpdated",
      "type": "event"
    },
    {
      "inputs": [],
      "name": "DEFAULT_ADMIN_ROLE",
      "outputs": [
        {
          "internalType": "bytes32",
          "name": "",
          "type": "bytes32"
        }
      ],
      "stateMutability": "view",
      "type": "function"
    },
    {
      "inputs": [],
      "name": "DISTRIBUTOR_ROLE",
      "outputs": [
        {
          "internalType": "bytes32",
          "name": "",
          "type": "bytes32"
        }
      ],
      "stateMutability": "view",
      "type": "function"
    },
    {
      "inputs": [
        {
          "internalType": "uint256",
          "name": "productId",
          "type": "uint256"
        },
        {
          "internalType": "string",
          "name": "origin",
          "type": "string"
        },
        {
          "internalType": "string",
          "name": "destination",
          "type": "string"
        },
        {
          "internalType": "string",
          "name": "transportCompany",
          "type": "string"
        },
        {
          "internalType": "uint256",
          "name": "quantity",
          "type": "uint256"
        },
        {
          "internalType": "string",
          "name": "notes",
          "type": "string"
        }
      ],
      "name": "createShipment",
      "outputs": [
        {
          "internalType": "uint256",
          "name": "",
          "type": "uint256"
        }
      ],
      "stateMutability": "nonpayable",
      "type": "function"
    },
    {
      "inputs": [
        {
          "internalType": "bytes32",
          "name": "role",
          "type": "bytes32"
        }
      ],
      "name": "getRoleAdmin",
      "outputs": [
        {
          "internalType": "bytes32",
          "name": "",
          "type": "bytes32"
        }
      ],
      "stateMutability": "view",
      "type": "function"
    },
    {
      "inputs": [
        {
          "internalType": "uint256",
          "name": "shipmentId",
          "type": "uint256"
        }
      ],
      "name": "getShipment",
      "outputs": [
        {
          "components": [
            {
              "internalType": "uint256",
              "name": "productId",
              "type": "uint256"
            },
            {
              "internalType": "address",
              "name": "distributor",
              "type": "address"
            },
            {
              "internalType": "string",
              "name": "origin",
              "type": "string"
            },
            {
              "internalType": "string",
              "name": "destination",
              "type": "string"
            },
            {
              "internalType": "string",
              "name": "transportCompany",
              "type": "string"
            },
            {
              "internalType": "uint256",
              "name": "quantity",
              "type": "uint256"
            },
            {
              "internalType": "string",
              "name": "notes",
              "type": "string"
            },
            {
              "internalType": "enum ShipmentRegistrationContract.Status",
              "name": "status",
              "type": "uint8"
            },
            {
              "internalType": "uint256",
              "name": "createdAt",
              "type": "uint256"
            }
          ],
          "internalType": "struct ShipmentRegistrationContract.Shipment",
          "name": "",
          "type": "tuple"
        }
      ],
      "stateMutability": "view",
      "type": "function"
    },
    {
      "inputs": [
        {
          "internalType": "address",
          "name": "who",
          "type": "address"
        }
      ],
      "name": "grantDistributor",
      "outputs": [],
      "stateMutability": "nonpayable",
      "type": "function"
    },
    {
      "inputs": [
        {
          "internalType": "bytes32",
          "name": "role",
          "type": "bytes32"
        },
        {
          "internalType": "address",
          "name": "account",
          "type": "address"
        }
      ],
      "name": "grantRole",
      "outputs": [],
      "stateMutability": "nonpayable",
      "type": "function"
    },
    {
      "inputs": [
        {
          "internalType": "bytes32",
          "name": "role",
          "type": "bytes32"
        },
        {
          "internalType": "address",
          "name": "account",
          "type": "address"
        }
      ],
      "name": "hasRole",
      "outputs": [
        {
          "internalType": "bool",
          "name": "",
          "type": "bool"
        }
      ],
      "stateMutability": "view",
      "type": "function"
    },
    {
      "inputs": [],
      "name": "nextShipmentId",
      "outputs": [
        {
          "internalType": "uint256",
          "name": "",
          "type": "uint256"
        }
      ],
      "stateMutability": "view",
      "type": "function"
    },
    {
      "inputs": [
        {
          "internalType": "bytes32",
          "name": "role",
          "type": "bytes32"
        },
        {
          "internalType": "address",
          "name": "callerConfirmation",
          "type": "address"
        }
      ],
      "name": "renounceRole",
      "outputs": [],
      "stateMutability": "nonpayable",
      "type": "function"
    },
    {
      "inputs": [
        {
          "internalType": "address",
          "name": "who",
          "type": "address"
        }
      ],
      "name": "revokeDistributor",
      "outputs": [],
      "stateMutability": "nonpayable",
      "type": "function"
    },
    {
      "inputs": [
        {
          "internalType": "bytes32",
          "name": "role",
          "type": "bytes32"
        },
        {
          "internalType": "address",
          "name": "account",
          "type": "address"
        }
      ],
      "name": "revokeRole",
      "outputs": [],
      "stateMutability": "nonpayable",
      "type": "function"
    },
    {
      "inputs": [
        {
          "internalType": "uint256",
          "name": "",
          "type": "uint256"
        }
      ],
      "name": "shipments",
      "outputs": [
        {
          "internalType": "uint256",
          "name": "productId",
          "type": "uint256"
        },
        {
          "internalType": "address",
          "name": "distributor",
          "type": "address"
        },
        {
          "internalType": "string",
          "name": "origin",
          "type": "string"
        },
        {
          "internalType": "string",
          "name": "destination",
          "type": "string"
        },
        {
          "internalType": "string",
          "name": "transportCompany",
          "type": "string"
        },
        {
          "internalType": "uint256",
          "name": "quantity",
          "type": "uint256"
        },
        {
          "internalType": "string",
          "name": "notes",
          "type": "string"
        },
        {
          "internalType": "enum ShipmentRegistrationContract.Status",
          "name": "status",
          "type": "uint8"
        },
        {
          "internalType": "uint256",
          "name": "createdAt",
          "type": "uint256"
        }
      ],
      "stateMutability": "view",
      "type": "function"
    },
    {
      "inputs": [
        {
          "internalType": "bytes4",
          "name": "interfaceId",
          "type": "bytes4"
        }
      ],
      "name": "supportsInterface",
      "outputs": [
        {
          "internalType": "bool",
          "name": "",
          "type": "bool"
        }
      ],
      "stateMutability": "view",
      "type": "function"
    },
    {
      "inputs": [
        {
          "internalType": "address",
          "name": "newAdmin",
          "type": "address"
        }
      ],
      "name": "transferAdmin",
      "outputs": [],
      "stateMutability": "nonpayable",
      "type": "function"
    },
    {
      "inputs": [
        {
          "internalType": "uint256",
          "name": "shipmentId",
          "type": "uint256"
        },
        {
          "internalType": "enum ShipmentRegistrationContract.Status",
          "name": "newStatus",
          "type": "uint8"
        }
      ],
      "name": "updateStatus",
      "outputs": [],
      "stateMutability": "nonpayable",
      "type": "function"
    }
  ],
  "bytecode": "0x60806040523480156200001157600080fd5b50620000276000801b336200006160201b60201c565b506200005a7ffbd454f36a7e1a388bd6fc3ab10d434aa4578f811acbbcf33afb1c697486313c336200006160201b60201c565b50620001d6565b60006200007583836200016460201b60201c565b6200015957600160008085815260200190815260200160002060000160008473ffffffffffffffffffffffffffffffffffffffff1673ffffffffffffffffffffffffffffffffffffffff16815260200190815260200160002060006101000a81548160ff021916908315150217905550620000f5620001ce60201b60201c565b73ffffffffffffffffffffffffffffffffffffffff168273ffffffffffffffffffffffffffffffffffffffff16847f2f8788117e7eff1d82e926ec794901d17c78024a50270940304540a733656f0d60405160405180910390a4600190506200015e565b600090505b92915050565b600080600084815260200190815260200160002060000160008373ffffffffffffffffffffffffffffffffffffffff1673ffffffffffffffffffffffffffffffffffffffff16815260200190815260200160002060009054906101000a900460ff16905092915050565b600033905090565b61218d80620001e66000396000f3fe608060405234801561001057600080fd5b50600436106101005760003560e01c806363ca21d711610097578063b9a3a68c11610066578063b9a3a68c146102c3578063d547741f146102e1578063f0bd87cc146102fd578063f6b4fcfd1461031b57610100565b806363ca21d71461023d57806375829def1461025957806391d1485414610275578063a217fddf146102a557610100565b80632ac08a93116100d35780632ac08a93146101b15780632f2ff15d146101e957806336568abe146102055780633a1b3d311461022157610100565b806301ffc9a714610105578063092b374014610135578063120b93d314610165578063248a9ca314610181575b600080fd5b61011f600480360381019061011a9190611436565b61034b565b60405161012c919061147e565b60405180910390f35b61014f600480360381019061014a91906114cf565b6103c5565b60405161015c919061172d565b60405180910390f35b61017f600480360381019061017a919061177b565b6106ea565b005b61019b600480360381019061019691906117de565b610726565b6040516101a8919061181a565b60405180910390f35b6101cb60048036038101906101c691906114cf565b610745565b6040516101e0999897969594939291906118ac565b60405180910390f35b61020360048036038101906101fe9190611955565b6109e0565b005b61021f600480360381019061021a9190611955565b610a02565b005b61023b600480360381019061023691906119ba565b610a7d565b005b6102576004803603810190610252919061177b565b610b28565b005b610273600480360381019061026e919061177b565b610bd3565b005b61028f600480360381019061028a9190611955565b610c6e565b60405161029c919061147e565b60405180910390f35b6102ad610cd8565b6040516102ba919061181a565b60405180910390f35b6102cb610cdf565b6040516102d891906119fa565b60405180910390f35b6102fb60048036038101906102f69190611955565b610ce5565b005b610305610d07565b604051610312919061181a565b60405180910390f35b61033560048036038101906103309190611a7a565b610d2b565b60405161034291906119fa565b60405180910390f35b60007f7965db0b000000000000000000000000000000000000000000000000000000007bffffffffffffffffffffffffffffffffffffffffffffffffffffffff1916827bffffffffffffffffffffffffffffffffffffffffffffffffffffffff191614806103be57506103bd826110a6565b5b9050919050565b6103cd611360565b6001600083815260200190815260200160002060405180610120016040529081600082015481526020016001820160009054906101000a900473ffffffffffffffffffffffffffffffffffffffff1673ffffffffffffffffffffffffffffffffffffffff1673ffffffffffffffffffffffffffffffffffffffff16815260200160028201805461045c90611bb9565b80601f016020809104026020016040519081016040528092919081815260200182805461048890611bb9565b80156104d55780601f106104aa576101008083540402835291602001916104d5565b820191906000526020600020905b8154815290600101906020018083116104b857829003601f168201915b505050505081526020016003820180546104ee90611bb9565b80601f016020809104026020016040519081016040528092919081815260200182805461051a90611bb9565b80156105675780601f1061053c57610100808354040283529160200191610567565b820191906000526020600020905b81548152906001019060200180831161054a57829003601f168201915b5050505050815260200160048201805461058090611bb9565b80601f01602080910402602001604051908101604052809291908181526020018280546105ac90611bb9565b80156105f95780601f106105ce576101008083540402835291602001916105f9565b820191906000526020600020905b8154815290600101906020018083116105dc57829003601f168201915b505050505081526020016005820154815260200160068201805461061c90611bb9565b80601f016020809104026020016040519081016040528092919081815260200182805461064890611bb9565b80156106955780601f1061066a57610100808354040283529160200191610695565b820191906000526020600020905b81548152906001019060200180831161067857829003601f168201915b505050505081526020016007820160009054906101000a900460ff1660038111156106c3576106c26115dc565b5b60038111156106d5576106d46115dc565b5b81526020016008820154815250509050919050565b6000801b6106f781611110565b6107217ffbd454f36a7e1a388bd6fc3ab10d434aa4578f811acbbcf33afb1c697486313c83611124565b505050565b6000806000838152602001908152602001600020600101549050919050565b60016020528060005260406000206000915090508060000154908060010160009054906101000a900473ffffffffffffffffffffffffffffffffffffffff169080600201805461079490611bb9565b80601f01602080910402602001604051908101604052809291908181526020018280546107c090611bb9565b801561080d5780601f106107e25761010080835404028352916020019161080d565b820191906000526020600020905b8154815290600101906020018083116107f057829003601f168201915b50505050509080600301805461082290611bb9565b80601f016020809104026020016040519081016040528092919081815260200182805461084e90611bb9565b801561089b5780601f106108705761010080835404028352916020019161089b565b820191906000526020600020905b81548152906001019060200180831161087e57829003601f168201915b5050505050908060040180546108b090611bb9565b80601f01602080910402602001604051908101604052809291908181526020018280546108dc90611bb9565b80156109295780601f106108fe57610100808354040283529160200191610929565b820191906000526020600020905b81548152906001019060200180831161090c57829003601f168201915b50505050509080600501549080600601805461094490611bb9565b80601f016020809104026020016040519081016040528092919081815260200182805461097090611bb9565b80156109bd5780601f10610992576101008083540402835291602001916109bd565b820191906000526020600020905b8154815290600101906020018083116109a057829003601f168201915b5050505050908060070160009054906101000a900460ff16908060080154905089565b6109e982610726565b6109f281611110565b6109fc8383611216565b50505050565b610a0a611307565b73ffffffffffffffffffffffffffffffffffffffff168173ffffffffffffffffffffffffffffffffffffffff1614610a6e576040517f6697b23200000000000000000000000000000000000000000000000000000000815260040160405180910390fd5b610a788282611124565b505050565b7ffbd454f36a7e1a388bd6fc3ab10d434aa4578f811acbbcf33afb1c697486313c610aa781611110565b6000600160008581526020019081526020016000209050828160070160006101000a81548160ff02191690836003811115610ae557610ae46115dc565b5b0217905550837f8e16b4336dc88d11f2b19383604580b7fc6349df052bc9232d52ce1a40df6c4d84604051610b1a9190611bea565b60405180910390a250505050565b6000801b610b3581611110565b600073ffffffffffffffffffffffffffffffffffffffff168273ffffffffffffffffffffffffffffffffffffffff1603610ba4576040517f08c379a0000000000000000000000000000000000000000000000000000000008152600401610b9b90611c51565b60405180910390fd5b610bce7ffbd454f36a7e1a388bd6fc3ab10d434aa4578f811acbbcf33afb1c697486313c83611216565b505050565b6000801b610be081611110565b600073ffffffffffffffffffffffffffffffffffffffff168273ffffffffffffffffffffffffffffffffffffffff1603610c4f576040517f08c379a0000000000000000000000000000000000000000000000000000000008152600401610c4690611cbd565b60405180910390fd5b610c5c6000801b83611216565b50610c6a6000801b33610a02565b5050565b600080600084815260200190815260200160002060000160008373ffffffffffffffffffffffffffffffffffffffff1673ffffffffffffffffffffffffffffffffffffffff16815260200190815260200160002060009054906101000a900460ff16905092915050565b6000801b81565b60025481565b610cee82610726565b610cf781611110565b610d018383611124565b50505050565b7ffbd454f36a7e1a388bd6fc3ab10d434aa4578f811acbbcf33afb1c697486313c81565b60007ffbd454f36a7e1a388bd6fc3ab10d434aa4578f811acbbcf33afb1c697486313c610d5781611110565b60008511610d9a576040517f08c379a0000000000000000000000000000000000000000000000000000000008152600401610d9190611d29565b60405180910390fd5b600060026000815480929190610daf90611d78565b9190505590506040518061012001604052808e81526020013373ffffffffffffffffffffffffffffffffffffffff1681526020018d8d8080601f016020809104026020016040519081016040528093929190818152602001838380828437600081840152601f19601f8201169050808301925050505050505081526020018b8b8080601f016020809104026020016040519081016040528093929190818152602001838380828437600081840152601f19601f82011690508083019250505050505050815260200189898080601f016020809104026020016040519081016040528093929190818152602001838380828437600081840152601f19601f82011690508083019250505050505050815260200187815260200186868080601f016020809104026020016040519081016040528093929190818152602001838380828437600081840152601f19601f82011690508083019250505050505050815260200160016003811115610f2557610f246115dc565b5b815260200142815250600160008381526020019081526020016000206000820151816000015560208201518160010160006101000a81548173ffffffffffffffffffffffffffffffffffffffff021916908373ffffffffffffffffffffffffffffffffffffffff1602179055506040820151816002019081610fa79190611f9b565b506060820151816003019081610fbd9190611f9b565b506080820151816004019081610fd39190611f9b565b5060a0820151816005015560c0820151816006019081610ff39190611f9b565b5060e08201518160070160006101000a81548160ff0219169083600381111561101f5761101e6115dc565b5b021790555061010082015181600801559050503373ffffffffffffffffffffffffffffffffffffffff16817fa399411f5467011ed0f04e1e4b2a061f845321fc698443e1045e3a557d2331cb8f8f8f8f8f8f8f8f8f8f60405161108b9a999897969594939291906120a9565b60405180910390a380925050509a9950505050505050505050565b60007f01ffc9a7000000000000000000000000000000000000000000000000000000007bffffffffffffffffffffffffffffffffffffffffffffffffffffffff1916827bffffffffffffffffffffffffffffffffffffffffffffffffffffffff1916149050919050565b6111218161111c611307565b61130f565b50565b60006111308383610c6e565b1561120b57600080600085815260200190815260200160002060000160008473ffffffffffffffffffffffffffffffffffffffff1673ffffffffffffffffffffffffffffffffffffffff16815260200190815260200160002060006101000a81548160ff0219169083151502179055506111a8611307565b73ffffffffffffffffffffffffffffffffffffffff168273ffffffffffffffffffffffffffffffffffffffff16847ff6391f5c32d9c69d2a47ea670b442974b53935d1edc7fd64eb21e047a839171b60405160405180910390a460019050611210565b600090505b92915050565b60006112228383610c6e565b6112fc57600160008085815260200190815260200160002060000160008473ffffffffffffffffffffffffffffffffffffffff1673ffffffffffffffffffffffffffffffffffffffff16815260200190815260200160002060006101000a81548160ff021916908315150217905550611299611307565b73ffffffffffffffffffffffffffffffffffffffff168273ffffffffffffffffffffffffffffffffffffffff16847f2f8788117e7eff1d82e926ec794901d17c78024a50270940304540a733656f0d60405160405180910390a460019050611301565b600090505b92915050565b600033905090565b6113198282610c6e565b61135c5780826040517fe2517d3f00000000000000000000000000000000000000000000000000000000815260040161135392919061212e565b60405180910390fd5b5050565b60405180610120016040528060008152602001600073ffffffffffffffffffffffffffffffffffffffff1681526020016060815260200160608152602001606081526020016000815260200160608152602001600060038111156113c7576113c66115dc565b5b8152602001600081525090565b600080fd5b600080fd5b60007fffffffff0000000000000000000000000000000000000000000000000000000082169050919050565b611413816113de565b811461141e57600080fd5b50565b6000813590506114308161140a565b92915050565b60006020828403121561144c5761144b6113d4565b5b600061145a84828501611421565b91505092915050565b60008115159050919050565b61147881611463565b82525050565b6000602082019050611493600083018461146f565b92915050565b6000819050919050565b6114ac81611499565b81146114b757600080fd5b50565b6000813590506114c9816114a3565b92915050565b6000602082840312156114e5576114e46113d4565b5b60006114f3848285016114ba565b91505092915050565b61150581611499565b82525050565b600073ffffffffffffffffffffffffffffffffffffffff82169050919050565b60006115368261150b565b9050919050565b6115468161152b565b82525050565b600081519050919050565b600082825260208201905092915050565b60005b8381101561158657808201518184015260208101905061156b565b60008484015250505050565b6000601f19601f8301169050919050565b60006115ae8261154c565b6115b88185611557565b93506115c8818560208601611568565b6115d181611592565b840191505092915050565b7f4e487b7100000000000000000000000000000000000000000000000000000000600052602160045260246000fd5b6004811061161c5761161b6115dc565b5b50565b600081905061162d8261160b565b919050565b600061163d8261161f565b9050919050565b61164d81611632565b82525050565b60006101208301600083015161166c60008601826114fc565b50602083015161167f602086018261153d565b506040830151848203604086015261169782826115a3565b915050606083015184820360608601526116b182826115a3565b915050608083015184820360808601526116cb82826115a3565b91505060a08301516116e060a08601826114fc565b5060c083015184820360c08601526116f882826115a3565b91505060e083015161170d60e0860182611644565b506101008301516117226101008601826114fc565b508091505092915050565b600060208201905081810360008301526117478184611653565b905092915050565b6117588161152b565b811461176357600080fd5b50565b6000813590506117758161174f565b92915050565b600060208284031215611791576117906113d4565b5b600061179f84828501611766565b91505092915050565b6000819050919050565b6117bb816117a8565b81146117c657600080fd5b50565b6000813590506117d8816117b2565b92915050565b6000602082840312156117f4576117f36113d4565b5b6000611802848285016117c9565b91505092915050565b611814816117a8565b82525050565b600060208201905061182f600083018461180b565b92915050565b61183e81611499565b82525050565b61184d8161152b565b82525050565b600082825260208201905092915050565b600061186f8261154c565b6118798185611853565b9350611889818560208601611568565b61189281611592565b840191505092915050565b6118a681611632565b82525050565b6000610120820190506118c2600083018c611835565b6118cf602083018b611844565b81810360408301526118e1818a611864565b905081810360608301526118f58189611864565b905081810360808301526119098188611864565b905061191860a0830187611835565b81810360c083015261192a8186611864565b905061193960e083018561189d565b611947610100830184611835565b9a9950505050505050505050565b6000806040838503121561196c5761196b6113d4565b5b600061197a858286016117c9565b925050602061198b85828601611766565b9150509250929050565b600481106119a257600080fd5b50565b6000813590506119b481611995565b92915050565b600080604083850312156119d1576119d06113d4565b5b60006119df858286016114ba565b92505060206119f0858286016119a5565b9150509250929050565b6000602082019050611a0f6000830184611835565b92915050565b600080fd5b600080fd5b600080fd5b60008083601f840112611a3a57611a39611a15565b5b8235905067ffffffffffffffff811115611a5757611a56611a1a565b5b602083019150836001820283011115611a7357611a72611a1f565b5b9250929050565b60008060008060008060008060008060c08b8d031215611a9d57611a9c6113d4565b5b6000611aab8d828e016114ba565b9a505060208b013567ffffffffffffffff811115611acc57611acb6113d9565b5b611ad88d828e01611a24565b995099505060408b013567ffffffffffffffff811115611afb57611afa6113d9565b5b611b078d828e01611a24565b975097505060608b013567ffffffffffffffff811115611b2a57611b296113d9565b5b611b368d828e01611a24565b95509550506080611b498d828e016114ba565b93505060a08b013567ffffffffffffffff811115611b6a57611b696113d9565b5b611b768d828e01611a24565b92509250509295989b9194979a5092959850565b7f4e487b7100000000000000000000000000000000000000000000000000000000600052602260045260246000fd5b60006002820490506001821680611bd157607f821691505b602082108103611be457611be3611b8a565b5b50919050565b6000602082019050611bff600083018461189d565b92915050565b7f4e6f207075656465207365722030783000000000000000000000000000000000600082015250565b6000611c3b601083611853565b9150611c4682611c05565b602082019050919050565b60006020820190508181036000830152611c6a81611c2e565b9050919050565b7f41646d696e20696e76616c69646f000000000000000000000000000000000000600082015250565b6000611ca7600e83611853565b9150611cb282611c71565b602082019050919050565b60006020820190508181036000830152611cd681611c9a565b9050919050565b7f5175616e746974793e3000000000000000000000000000000000000000000000600082015250565b6000611d13600a83611853565b9150611d1e82611cdd565b602082019050919050565b60006020820190508181036000830152611d4281611d06565b9050919050565b7f4e487b7100000000000000000000000000000000000000000000000000000000600052601160045260246000fd5b6000611d8382611499565b91507fffffffffffffffffffffffffffffffffffffffffffffffffffffffffffffffff8203611db557611db4611d49565b5b600182019050919050565b7f4e487b7100000000000000000000000000000000000000000000000000000000600052604160045260246000fd5b60008190508160005260206000209050919050565b60006020601f8301049050919050565b600082821b905092915050565b600060088302611e517fffffffffffffffffffffffffffffffffffffffffffffffffffffffffffffffff82611e14565b611e5b8683611e14565b95508019841693508086168417925050509392505050565b6000819050919050565b6000611e98611e93611e8e84611499565b611e73565b611499565b9050919050565b6000819050919050565b611eb283611e7d565b611ec6611ebe82611e9f565b848454611e21565b825550505050565b600090565b611edb611ece565b611ee6818484611ea9565b505050565b5b81811015611f0a57611eff600082611ed3565b600181019050611eec565b5050565b601f821115611f4f57611f2081611def565b611f2984611e04565b81016020851015611f38578190505b611f4c611f4485611e04565b830182611eeb565b50505b505050565b600082821c905092915050565b6000611f7260001984600802611f54565b1980831691505092915050565b6000611f8b8383611f61565b9150826002028217905092915050565b611fa48261154c565b67ffffffffffffffff811115611fbd57611fbc611dc0565b5b611fc78254611bb9565b611fd2828285611f0e565b600060209050601f8311600181146120055760008415611ff3578287015190505b611ffd8582611f7f565b865550612065565b601f19841661201386611def565b60005b8281101561203b57848901518255600182019150602085019450602081019050612016565b868310156120585784890151612054601f891682611f61565b8355505b6001600288020188555050505b505050505050565b82818337600083830152505050565b60006120888385611853565b935061209583858461206d565b61209e83611592565b840190509392505050565b600060c0820190506120be600083018d611835565b81810360208301526120d1818b8d61207c565b905081810360408301526120e681898b61207c565b905081810360608301526120fb81878961207c565b905061210a6080830186611835565b81810360a083015261211d81848661207c565b90509b9a5050505050505050505050565b60006040820190506121436000830185611844565b612150602083018461180b565b939250505056fea264697066735822122006b8268633844a89562e9ee92ce138770ad55f49b4f31741fa549ae8960d943064736f6c63430008140033",
  "linkReferences": {},
  "deployedLinkReferences": {}
}