{"contracts/ShipmentRegistrationContract.sol":{"ShipmentRegistrationContract":{"abi":[{"inputs":[],"stateMutability":"nonpayable","type":"constructor"},{"inputs":[],"name":"AccessControlBadConfirmation","type":"error"},{"inputs":[{"internalType":"address","name":"account","type":"address"},{"internalType":"bytes32","name":"neededRole","type":"bytes32"}],"name":"AccessControlUnauthorizedAccount","type":"error"},{"anonymous":false,"inputs":[{"indexed":true,"internalType":"bytes32","name":"role","type":"bytes32"},{"indexed":true,"internalType":"bytes32","name":"previousAdminRole","type":"bytes32"},{"indexed":true,"internalType":"bytes32","name":"newAdminRole","type":"bytes32"}],"name":"RoleAdminChanged","type":"event"},{"anonymous":false,"inputs":[{"indexed":true,"internalType":"bytes32","name":"role","type":"bytes32"},{"indexed":true,"internalType":"address","name":"account","type":"address"},{"indexed":true,"internalType":"address","name":"sender","type":"address"}],"name":"RoleGranted","type":"event"},{"anonymous":false,"inputs":[{"indexed":true,"internalType":"bytes32","name":"role","type":"bytes32"},{"indexed":true,"internalType":"address","name":"account","type":"address"},{"indexed":true,"internalType":"address","name":"sender","type":"address"}],"name":"RoleRevoked","type":"event"},{"anonymous":false,"inputs":[{"indexed":true,"internalType":"uint256","name":"shipmentId","type":"uint256"},{"indexed":false,"internalType":"uint256","name":"productId","type":"uint256"},{"indexed":true,"internalType":"address","name":"distributor","type":"address"},{"indexed":false,"internalType":"string","name":"origin","type":"string"},{"indexed":false,"internalType":"string","name":"destination","type":"string"},{"indexed":false,"internalType":"string","name":"transportCompany","type":"string"},{"indexed":false,"internalType":"uint256","name":"quantity","type":"uint256"},{"indexed":false,"internalType":"string","name":"notes","type":"string"}],"name":"ShipmentCreated","type":"event"},{"anonymous":false,"inputs":[{"indexed":true,"internalType":"uint256","name":"shipmentId","type":"uint256"},{"indexed":false,"internalType":"enum ShipmentRegistrationContract.Status","name":"newStatus","type":"uint8"}],"name":"ShipmentStatusUpdated","type":"event"},{"inputs":[],"name":"DEFAULT_ADMIN_ROLE","outputs":[{"internalType":"bytes32","name":"","type":"bytes32"}],"stateMutability":"view","type":"function"},{"inputs":[],"name":"DISTRIBUTOR_ROLE","outputs":[{"internalType":"bytes32","name":"","type":"bytes32"}],"stateMutability":"view","type":"function"},{"inputs":[{"internalType":"uint256","name":"productId","type":"uint256"},{"internalType":"string","name":"origin","type":"string"},{"internalType":"string","name":"destination","type":"string"},{"internalType":"string","name":"transportCompany","type":"string"},{"internalType":"uint256","name":"quantity","type":"uint256"},{"internalType":"string","name":"notes","type":"string"}],"name":"createShipment","outputs":[{"internalType":"uint256","name":"","type":"uint256"}],"stateMutability":"nonpayable","type":"function"},{"inputs":[{"internalType":"bytes32","name":"role","type":"bytes32"}],"name":"getRoleAdmin","outputs":[{"internalType":"bytes32","name":"","type":"bytes32"}],"stateMutability":"view","type":"function"},{"inputs":[{"internalType":"uint256","name":"shipmentId","type":"uint256"}],"name":"getShipment","outputs":[{"components":[{"internalType":"uint256","name":"productId","type":"uint256"},{"internalType":"address","name":"distributor","type":"address"},{"internalType":"string","name":"origin","type":"string"},{"internalType":"string","name":"destination","type":"string"},{"internalType":"string","name":"transportCompany","type":"string"},{"internalType":"uint256","name":"quantity","type":"uint256"},{"internalType":"string","name":"notes","type":"string"},{"internalType":"enum ShipmentRegistrationContract.Status","name":"status","type":"uint8"},{"internalType":"uint256","name":"createdAt","type":"uint256"}],"internalType":"struct ShipmentRegistrationContract.Shipment","name":"","type":"tuple"}],"stateMutability":"view","type":"function"},{"inputs":[{"internalType":"address","name":"who","type":"address"}],"name":"grantDistributor","outputs":[],"stateMutability":"nonpayable","type":"function"},{"inputs":[{"internalType":"bytes32","name":"role","type":"bytes32"},{"internalType":"address","name":"account","type":"address"}],"name":"grantRole","outputs":[],"stateMutability":"nonpayable","type":"function"},{"inputs":[{"internalType":"bytes32","name":"role","type":"bytes32"},{"internalType":"address","name":"account","type":"address"}],"name":"hasRole","outputs":[{"internalType":"bool","name":"","type":"bool"}],"stateMutability":"view","type":"function"},{"inputs":[],"name":"nextShipmentId","outputs":[{"internalType":"uint256","name":"","type":"uint256"}],"stateMutability":"view","type":"function"},{"inputs":[{"internalType":"bytes32","name":"role","type":"bytes32"},{"internalType":"address","name":"callerConfirmation","type":"address"}],"name":"renounceRole","outputs":[],"stateMutability":"nonpayable","type":"function"},{"inputs":[{"internalType":"address","name":"who","type":"address"}],"name":"revokeDistributor","outputs":[],"stateMutability":"nonpayable","type":"function"},{"inputs":[{"internalType":"bytes32","name":"role","type":"bytes32"},{"internalType":"address","name":"account","type":"address"}],"name":"revokeRole","outputs":[],"stateMutability":"nonpayable","type":"function"},{"inputs":[{"internalType":"uint256","name":"","type":"uint256"}],"name":"shipments","outputs":[{"internalType":"uint256","name":"productId","type":"uint256"},{"internalType":"address","name":"distributor","type":"address"},{"internalType":"string","name":"origin","type":"string"},{"internalType":"string","name":"destination","type":"string"},{"internalType":"string","name":"transportCompany","type":"string"},{"internalType":"uint256","name":"quantity","type":"uint256"},{"internalType":"string","name":"notes","type":"string"},{"internalType":"enum ShipmentRegistrationContract.Status","name":"status","type":"uint8"},{"internalType":"uint256","name":"createdAt","type":"uint256"}],"stateMutability":"view","type":"function"},{"inputs":[{"internalType":"bytes4","name":"interfaceId","type":"bytes4"}],"name":"supportsInterface","outputs":[{"internalType":"bool","name":"","type":"bool"}],"stateMutability":"view","type":"function"},{"inputs":[{"internalType":"address","name":"newAdmin","type":"address"}],"name":"transferAdmin","outputs":[],"stateMutability":"nonpayable","type":"function"},{"inputs":[{"internalType":"uint256","name":"shipmentId","type":"uint256"},{"internalType":"enum ShipmentRegistrationContract.Status","name":"newStatus","type":"uint8"}],"name":"updateStatus","outputs":[],"stateMutability":"nonpayable","type":"function"}],"evm":{"bytecode":{"linkReferences":{},"object":"60806040523480156200001157600080fd5b50620000276000801b336200006160201b60201c565b506200005a7ffbd454f36a7e1a388bd6fc3ab10d434aa4578f811acbbcf33afb1c697486313c336200006160201b60201c565b50620001d6565b60006200007583836200016460201b60201c565b6200015957600160008085815260200190815260200160002060000160008473ffffffffffffffffffffffffffffffffffffffff1673ffffffffffffffffffffffffffffffffffffffff16815260200190815260200160002060006101000a81548160ff021916908315150217905550620000f5620001ce60201b60201c565b73ffffffffffffffffffffffffffffffffffffffff168273ffffffffffffffffffffffffffffffffffffffff16847f2f8788117e7eff1d82e926ec794901d17c78024a50270940304540a733656f0d60405160405180910390a4600190506200015e565b600090505b92915050565b600080600084815260200190815260200160002060000160008373ffffffffffffffffffffffffffffffffffffffff1673ffffffffffffffffffffffffffffffffffffffff16815260200190815260200160002060009054906101000a900460ff16905092915050565b600033905090565b61218d80620001e66000396000f3fe608060405234801561001057600080fd5b50600436106101005760003560e01c806363ca21d711610097578063b9a3a68c11610066578063b9a3a68c146102c3578063d547741f146102e1578063f0bd87cc146102fd578063f6b4fcfd1461031b57610100565b806363ca21d71461023d57806375829def1461025957806391d1485414610275578063a217fddf146102a557610100565b80632ac08a93116100d35780632ac08a93146101b15780632f2ff15d146101e957806336568abe146102055780633a1b3d311461022157610100565b806301ffc9a714610105578063092b374014610135578063120b93d314610165578063248a9ca314610181575b600080fd5b61011f600480360381019061011a9190611436565b61034b565b60405161012c919061147e565b60405180910390f35b61014f600480360381019061014a91906114cf565b6103c5565b60405161015c919061172d565b60405180910390f35b61017f600480360381019061017a919061177b565b6106ea565b005b61019b600480360381019061019691906117de565b610726565b6040516101a8919061181a565b60405180910390f35b6101cb60048036038101906101c691906114cf565b610745565b6040516101e0999897969594939291906118ac565b60405180910390f35b61020360048036038101906101fe9190611955565b6109e0565b005b61021f600480360381019061021a9190611955565b610a02565b005b61023b600480360381019061023691906119ba565b610a7d565b005b6102576004803603810190610252919061177b565b610b28565b005b610273600480360381019061026e919061177b565b610bd3565b005b61028f600480360381019061028a9190611955565b610c6e565b60405161029c919061147e565b60405180910390f35b6102ad610cd8565b6040516102ba919061181a565b60405180910390f35b6102cb610cdf565b6040516102d891906119fa565b60405180910390f35b6102fb60048036038101906102f69190611955565b610ce5565b005b610305610d07565b604051610312919061181a565b60405180910390f35b61033560048036038101906103309190611a7a565b610d2b565b60405161034291906119fa565b60405180910390f35b60007f7965db0b000000000000000000000000000000000000000000000000000000007bffffffffffffffffffffffffffffffffffffffffffffffffffffffff1916827bffffffffffffffffffffffffffffffffffffffffffffffffffffffff191614806103be57506103bd826110a6565b5b9050919050565b6103cd611360565b6001600083815260200190815260200160002060405180610120016040529081600082015481526020016001820160009054906101000a900473ffffffffffffffffffffffffffffffffffffffff1673ffffffffffffffffffffffffffffffffffffffff1673ffffffffffffffffffffffffffffffffffffffff16815260200160028201805461045c90611bb9565b80601f016020809104026020016040519081016040528092919081815260200182805461048890611bb9565b80156104d55780601f106104aa576101008083540402835291602001916104d5565b820191906000526020600020905b8154815290600101906020018083116104b857829003601f168201915b505050505081526020016003820180546104ee90611bb9565b80601f016020809104026020016040519081016040528092919081815260200182805461051a90611bb9565b80156105675780601f1061053c57610100808354040283529160200191610567565b820191906000526020600020905b81548152906001019060200180831161054a57829003601f168201915b5050505050815260200160048201805461058090611bb9565b80601f01602080910402602001604051908101604052809291908181526020018280546105ac90611bb9565b80156105f95780601f106105ce576101008083540402835291602001916105f9565b820191906000526020600020905b8154815290600101906020018083116105dc57829003601f168201915b505050505081526020016005820154815260200160068201805461061c90611bb9565b80601f016020809104026020016040519081016040528092919081815260200182805461064890611bb9565b80156106955780601f1061066a57610100808354040283529160200191610695565b820191906000526020600020905b81548152906001019060200180831161067857829003601f168201915b505050505081526020016007820160009054906101000a900460ff1660038111156106c3576106c26115dc565b5b60038111156106d5576106d46115dc565b5b81526020016008820154815250509050919050565b6000801b6106f781611110565b6107217ffbd454f36a7e1a388bd6fc3ab10d434aa4578f811acbbcf33afb1c697486313c83611124565b505050565b6000806000838152602001908152602001600020600101549050919050565b60016020528060005260406000206000915090508060000154908060010160009054906101000a900473ffffffffffffffffffffffffffffffffffffffff169080600201805461079490611bb9565b80601f01602080910402602001604051908101604052809291908181526020018280546107c090611bb9565b801561080d5780601f106107e25761010080835404028352916020019161080d565b820191906000526020600020905b8154815290600101906020018083116107f057829003601f168201915b50505050509080600301805461082290611bb9565b80601f016020809104026020016040519081016040528092919081815260200182805461084e90611bb9565b801561089b5780601f106108705761010080835404028352916020019161089b565b820191906000526020600020905b81548152906001019060200180831161087e57829003601f168201915b5050505050908060040180546108b090611bb9565b80601f01602080910402602001604051908101604052809291908181526020018280546108dc90611bb9565b80156109295780601f106108fe57610100808354040283529160200191610929565b820191906000526020600020905b81548152906001019060200180831161090c57829003601f168201915b50505050509080600501549080600601805461094490611bb9565b80601f016020809104026020016040519081016040528092919081815260200182805461097090611bb9565b80156109bd5780601f10610992576101008083540402835291602001916109bd565b820191906000526020600020905b8154815290600101906020018083116109a057829003601f168201915b5050505050908060070160009054906101000a900460ff16908060080154905089565b6109e982610726565b6109f281611110565b6109fc8383611216565b50505050565b610a0a611307565b73ffffffffffffffffffffffffffffffffffffffff168173ffffffffffffffffffffffffffffffffffffffff1614610a6e576040517f6697b23200000000000000000000000000000000000000000000000000000000815260040160405180910390fd5b610a788282611124565b505050565b7ffbd454f36a7e1a388bd6fc3ab10d434aa4578f811acbbcf33afb1c697486313c610aa781611110565b6000600160008581526020019081526020016000209050828160070160006101000a81548160ff02191690836003811115610ae557610ae46115dc565b5b0217905550837f8e16b4336dc88d11f2b19383604580b7fc6349df052bc9232d52ce1a40df6c4d84604051610b1a9190611bea565b60405180910390a250505050565b6000801b610b3581611110565b600073ffffffffffffffffffffffffffffffffffffffff168273ffffffffffffffffffffffffffffffffffffffff1603610ba4576040517f08c379a0000000000000000000000000000000000000000000000000000000008152600401610b9b90611c51565b60405180910390fd5b610bce7ffbd454f36a7e1a388bd6fc3ab10d434aa4578f811acbbcf33afb1c697486313c83611216565b505050565b6000801b610be081611110565b600073ffffffffffffffffffffffffffffffffffffffff168273ffffffffffffffffffffffffffffffffffffffff1603610c4f576040517f08c379a0000000000000000000000000000000000000000000000000000000008152600401610c4690611cbd565b60405180910390fd5b610c5c6000801b83611216565b50610c6a6000801b33610a02565b5050565b600080600084815260200190815260200160002060000160008373ffffffffffffffffffffffffffffffffffffffff1673ffffffffffffffffffffffffffffffffffffffff16815260200190815260200160002060009054906101000a900460ff16905092915050565b6000801b81565b60025481565b610cee82610726565b610cf781611110565b610d018383611124565b50505050565b7ffbd454f36a7e1a388bd6fc3ab10d434aa4578f811acbbcf33afb1c697486313c81565b60007ffbd454f36a7e1a388bd6fc3ab10d434aa4578f811acbbcf33afb1c697486313c610d5781611110565b60008511610d9a576040517f08c379a0000000000000000000000000000000000000000000000000000000008152600401610d9190611d29565b60405180910390fd5b600060026000815480929190610daf90611d78565b9190505590506040518061012001604052808e81526020013373ffffffffffffffffffffffffffffffffffffffff1681526020018d8d8080601f016020809104026020016040519081016040528093929190818152602001838380828437600081840152601f19601f8201169050808301925050505050505081526020018b8b8080601f016020809104026020016040519081016040528093929190818152602001838380828437600081840152601f19601f82011690508083019250505050505050815260200189898080601f016020809104026020016040519081016040528093929190818152602001838380828437600081840152601f19601f82011690508083019250505050505050815260200187815260200186868080601f016020809104026020016040519081016040528093929190818152602001838380828437600081840152601f19601f82011690508083019250505050505050815260200160016003811115610f2557610f246115dc565b5b815260200142815250600160008381526020019081526020016000206000820151816000015560208201518160010160006101000a81548173ffffffffffffffffffffffffffffffffffffffff021916908373ffffffffffffffffffffffffffffffffffffffff1602179055506040820151816002019081610fa79190611f9b565b506060820151816003019081610fbd9190611f9b565b506080820151816004019081610fd39190611f9b565b5060a0820151816005015560c0820151816006019081610ff39190611f9b565b5060e08201518160070160006101000a81548160ff0219169083600381111561101f5761101e6115dc565b5b021790555061010082015181600801559050503373ffffffffffffffffffffffffffffffffffffffff16817fa399411f5467011ed0f04e1e4b2a061f845321fc698443e1045e3a557d2331cb8f8f8f8f8f8f8f8f8f8f60405161108b9a999897969594939291906120a9565b60405180910390a380925050509a9950505050505050505050565b60007f01ffc9a7000000000000000000000000000000000000000000000000000000007bffffffffffffffffffffffffffffffffffffffffffffffffffffffff1916827bffffffffffffffffffffffffffffffffffffffffffffffffffffffff1916149050919050565b6111218161111c611307565b61130f565b50565b60006111308383610c6e565b1561120b57600080600085815260200190815260200160002060000160008473ffffffffffffffffffffffffffffffffffffffff1673ffffffffffffffffffffffffffffffffffffffff16815260200190815260200160002060006101000a81548160ff0219169083151502179055506111a8611307565b73ffffffffffffffffffffffffffffffffffffffff168273ffffffffffffffffffffffffffffffffffffffff16847ff6391f5c32d9c69d2a47ea670b442974b53935d1edc7fd64eb21e047a839171b60405160405180910390a460019050611210565b600090505b92915050565b60006112228383610c6e565b6112fc57600160008085815260200190815260200160002060000160008473ffffffffffffffffffffffffffffffffffffffff1673ffffffffffffffffffffffffffffffffffffffff16815260200190815260200160002060006101000a81548160ff021916908315150217905550611299611307565b73ffffffffffffffffffffffffffffffffffffffff168273ffffffffffffffffffffffffffffffffffffffff16847f2f8788117e7eff1d82e926ec794901d17c78024a50270940304540a733656f0d60405160405180910390a460019050611301565b600090505b92915050565b600033905090565b6113198282610c6e565b61135c5780826040517fe2517d3f00000000000000000000000000000000000000000000000000000000815260040161135392919061212e565b60405180910390fd5b5050565b60405180610120016040528060008152602001600073ffffffffffffffffffffffffffffffffffffffff1681526020016060815260200160608152602001606081526020016000815260200160608152602001600060038111156113c7576113c66115dc565b5b8152602001600081525090565b600080fd5b600080fd5b60007fffffffff0000000000000000000000000000000000000000000000000000000082169050919050565b611413816113de565b811461141e57600080fd5b50565b6000813590506114308161140a565b92915050565b60006020828403121561144c5761144b6113d4565b5b600061145a84828501611421565b91505092915050565b60008115159050919050565b61147881611463565b82525050565b6000602082019050611493600083018461146f565b92915050565b6000819050919050565b6114ac81611499565b81146114b757600080fd5b50565b6000813590506114c9816114a3565b92915050565b6000602082840312156114e5576114e46113d4565b5b60006114f3848285016114ba565b91505092915050565b61150581611499565b82525050565b600073ffffffffffffffffffffffffffffffffffffffff82169050919050565b60006115368261150b565b9050919050565b6115468161152b565b82525050565b600081519050919050565b600082825260208201905092915050565b60005b8381101561158657808201518184015260208101905061156b565b60008484015250505050565b6000601f19601f8301169050919050565b60006115ae8261154c565b6115b88185611557565b93506115c8818560208601611568565b6115d181611592565b840191505092915050565b7f4e487b7100000000000000000000000000000000000000000000000000000000600052602160045260246000fd5b6004811061161c5761161b6115dc565b5b50565b600081905061162d8261160b565b919050565b600061163d8261161f565b9050919050565b61164d81611632565b82525050565b60006101208301600083015161166c60008601826114fc565b50602083015161167f602086018261153d565b506040830151848203604086015261169782826115a3565b915050606083015184820360608601526116b182826115a3565b915050608083015184820360808601526116cb82826115a3565b91505060a08301516116e060a08601826114fc565b5060c083015184820360c08601526116f882826115a3565b91505060e083015161170d60e0860182611644565b506101008301516117226101008601826114fc565b508091505092915050565b600060208201905081810360008301526117478184611653565b905092915050565b6117588161152b565b811461176357600080fd5b50565b6000813590506117758161174f565b92915050565b600060208284031215611791576117906113d4565b5b600061179f84828501611766565b91505092915050565b6000819050919050565b6117bb816117a8565b81146117c657600080fd5b50565b6000813590506117d8816117b2565b92915050565b6000602082840312156117f4576117f36113d4565b5b6000611802848285016117c9565b91505092915050565b611814816117a8565b82525050565b600060208201905061182f600083018461180b565b92915050565b61183e81611499565b82525050565b61184d8161152b565b82525050565b600082825260208201905092915050565b600061186f8261154c565b6118798185611853565b9350611889818560208601611568565b61189281611592565b840191505092915050565b6118a681611632565b82525050565b6000610120820190506118c2600083018c611835565b6118cf602083018b611844565b81810360408301526118e1818a611864565b905081810360608301526118f58189611864565b905081810360808301526119098188611864565b905061191860a0830187611835565b81810360c083015261192a8186611864565b905061193960e083018561189d565b611947610100830184611835565b9a9950505050505050505050565b6000806040838503121561196c5761196b6113d4565b5b600061197a858286016117c9565b925050602061198b85828601611766565b9150509250929050565b600481106119a257600080fd5b50565b6000813590506119b481611995565b92915050565b600080604083850312156119d1576119d06113d4565b5b60006119df858286016114ba565b92505060206119f0858286016119a5565b9150509250929050565b6000602082019050611a0f6000830184611835565b92915050565b600080fd5b600080fd5b600080fd5b60008083601f840112611a3a57611a39611a15565b5b8235905067ffffffffffffffff811115611a5757611a56611a1a565b5b602083019150836001820283011115611a7357611a72611a1f565b5b9250929050565b60008060008060008060008060008060c08b8d031215611a9d57611a9c6113d4565b5b6000611aab8d828e016114ba565b9a505060208b013567ffffffffffffffff811115611acc57611acb6113d9565b5b611ad88d828e01611a24565b995099505060408b013567ffffffffffffffff811115611afb57611afa6113d9565b5b611b078d828e01611a24565b975097505060608b013567ffffffffffffffff811115611b2a57611b296113d9565b5b611b368d828e01611a24565b95509550506080611b498d828e016114ba565b93505060a08b013567ffffffffffffffff811115611b6a57611b696113d9565b5b611b768d828e01611a24565b92509250509295989b9194979a5092959850565b7f4e487b7100000000000000000000000000000000000000000000000000000000600052602260045260246000fd5b60006002820490506001821680611bd157607f821691505b602082108103611be457611be3611b8a565b5b50919050565b6000602082019050611bff600083018461189d565b92915050565b7f4e6f207075656465207365722030783000000000000000000000000000000000600082015250565b6000611c3b601083611853565b9150611c4682611c05565b602082019050919050565b60006020820190508181036000830152611c6a81611c2e565b9050919050565b7f41646d696e20696e76616c69646f000000000000000000000000000000000000600082015250565b6000611ca7600e83611853565b9150611cb282611c71565b602082019050919050565b60006020820190508181036000830152611cd681611c9a565b9050919050565b7f5175616e746974793e3000000000000000000000000000000000000000000000600082015250565b6000611d13600a83611853565b9150611d1e82611cdd565b602082019050919050565b60006020820190508181036000830152611d4281611d06565b9050919050565b7f4e487b7100000000000000000000000000000000000000000000000000000000600052601160045260246000fd5b6000611d8382611499565b91507fffffffffffffffffffffffffffffffffffffffffffffffffffffffffffffffff8203611db557611db4611d49565b5b600182019050919050565b7f4e487b7100000000000000000000000000000000000000000000000000000000600052604160045260246000fd5b60008190508160005260206000209050919050565b60006020601f8301049050919050565b600082821b905092915050565b600060088302611e517fffffffffffffffffffffffffffffffffffffffffffffffffffffffffffffffff82611e14565b611e5b8683611e14565b95508019841693508086168417925050509392505050565b6000819050919050565b6000611e98611e93611e8e84611499565b611e73565b611499565b9050919050565b6000819050919050565b611eb283611e7d565b611ec6611ebe82611e9f565b848454611e21565b825550505050565b600090565b611edb611ece565b611ee6818484611ea9565b505050565b5b81811015611f0a57611eff600082611ed3565b600181019050611eec565b5050565b601f821115611f4f57611f2081611def565b611f2984611e04565b81016020851015611f38578190505b611f4c611f4485611e04565b830182611eeb565b50505b505050565b600082821c905092915050565b6000611f7260001984600802611f54565b1980831691505092915050565b6000611f8b8383611f61565b9150826002028217905092915050565b611fa48261154c565b67ffffffffffffffff811115611fbd57611fbc611dc0565b5b611fc78254611bb9565b611fd2828285611f0e565b600060209050601f8311600181146120055760008415611ff3578287015190505b611ffd8582611f7f565b865550612065565b601f19841661201386611def565b60005b8281101561203b57848901518255600182019150602085019450602081019050612016565b868310156120585784890151612054601f891682611f61565b8355505b6001600288020188555050505b505050505050565b82818337600083830152505050565b60006120888385611853565b935061209583858461206d565b61209e83611592565b840190509392505050565b600060c0820190506120be600083018d611835565b81810360208301526120d1818b8d61207c565b905081810360408301526120e681898b61207c565b905081810360608301526120fb81878961207c565b905061210a6080830186611835565b81810360a083015261211d81848661207c565b90509b9a5050505050505050505050565b60006040820190506121436000830185611844565b612150602083018461180b565b939250505056fea264697066735822122006b8268633844a89562e9ee92ce138770ad55f49b4f31741fa549ae8960d943064736f6c63430008140033","opcodes":"PUSH1 0x80 PUSH1 0x40 MSTORE CALLVALUE DUP1 ISZERO PUSH3 0x11 JUMPI PUSH1 0x0 DUP1 REVERT JUMPDEST POP PUSH3 0x27 PUSH1 0x0 DUP1 SHL CALLER PUSH3 0x61 PUSH1 0x20 SHL PUSH1 0x20 SHR JUMP JUMPDEST POP PUSH3 0x5A PUSH32 0xFBD454F36A7E1A388BD6FC3AB10D434AA4578F811ACBBCF33AFB1C697486313C CALLER PUSH3 0x61 PUSH1 0x20 SHL PUSH1 0x20 SHR JUMP JUMPDEST POP PUSH3 0x1D6 JUMP JUMPDEST PUSH1 0x0 PUSH3 0x75 DUP4 DUP4 PUSH3 0x164 PUSH1 0x20 SHL PUSH1 0x20 SHR JUMP JUMPDEST PUSH3 0x159 JUMPI PUSH1 0x1 PUSH1 0x0 DUP1 DUP6 DUP2 MSTORE PUSH1 0x20 ADD SWAP1 DUP2 MSTORE PUSH1 0x20 ADD PUSH1 0x0 KECCAK256 PUSH1 0x0 ADD PUSH1 0x0 DUP5 PUSH20 0xFFFFFFFFFFFFFFFFFFFFFFFFFFFFFFFFFFFFFFFF AND PUSH20 0xFFFFFFFFFFFFFFFFFFFFFFFFFFFFFFFFFFFFFFFF AND DUP2 MSTORE PUSH1 0x20 ADD SWAP1 DUP2 MSTORE PUSH1 0x20 ADD PUSH1 0x0 KECCAK256 PUSH1 0x0 PUSH2 0x100 EXP DUP2 SLOAD DUP2 PUSH1 0xFF MUL NOT AND SWAP1 DUP4 ISZERO ISZERO MUL OR SWAP1 SSTORE POP PUSH3 0xF5 PUSH3 0x1CE PUSH1 0x20 SHL PUSH1 0x20 SHR JUMP JUMPDEST PUSH20 0xFFFFFFFFFFFFFFFFFFFFFFFFFFFFFFFFFFFFFFFF AND DUP3 PUSH20 0xFFFFFFFFFFFFFFFFFFFFFFFFFFFFFFFFFFFFFFFF AND DUP5 PUSH32 0x2F8788117E7EFF1D82E926EC794901D17C78024A50270940304540A733656F0D PUSH1 0x40 MLOAD PUSH1 0x40 MLOAD DUP1 SWAP2 SUB SWAP1 LOG4 PUSH1 0x1 SWAP1 POP PUSH3 0x15E JUMP JUMPDEST PUSH1 0x0 SWAP1 POP JUMPDEST SWAP3 SWAP2 POP POP JUMP JUMPDEST PUSH1 0x0 DUP1 PUSH1 0x0 DUP5 DUP2 MSTORE PUSH1 0x20 ADD SWAP1 DUP2 MSTORE PUSH1 0x20 ADD PUSH1 0x0 KECCAK256 PUSH1 0x0 ADD PUSH1 0x0 DUP4 PUSH20 0xFFFFFFFFFFFFFFFFFFFFFFFFFFFFFFFFFFFFFFFF AND PUSH20 0xFFFFFFFFFFFFFFFFFFFFFFFFFFFFFFFFFFFFFFFF AND DUP2 MSTORE PUSH1 0x20 ADD SWAP1 DUP2 MSTORE PUSH1 0x20 ADD PUSH1 0x0 KECCAK256 PUSH1 0x0 SWAP1 SLOAD SWAP1 PUSH2 0x100 EXP SWAP1 DIV PUSH1 0xFF AND SWAP1 POP SWAP3 SWAP2 POP POP JUMP JUMPDEST PUSH1 0x0 CALLER SWAP1 POP SWAP1 JUMP JUMPDEST PUSH2 0x218D DUP1 PUSH3 0x1E6 PUSH1 0x0 CODECOPY PUSH1 0x0 RETURN INVALID PUSH1 0x80 PUSH1 0x40 MSTORE CALLVALUE DUP1 ISZERO PUSH2 0x10 JUMPI PUSH1 0x0 DUP1 REVERT JUMPDEST POP PUSH1 0x4 CALLDATASIZE LT PUSH2 0x100 JUMPI PUSH1 0x0 CALLDATALOAD PUSH1 0xE0 SHR DUP1 PUSH4 0x63CA21D7 GT PUSH2 0x97 JUMPI DUP1 PUSH4 0xB9A3A68C GT PUSH2 0x66 JUMPI DUP1 PUSH4 0xB9A3A68C EQ PUSH2 0x2C3 JUMPI DUP1 PUSH4 0xD547741F EQ PUSH2 0x2E1 JUMPI DUP1 PUSH4 0xF0BD87CC EQ PUSH2 0x2FD JUMPI DUP1 PUSH4 0xF6B4FCFD EQ PUSH2 0x31B JUMPI PUSH2 0x100 JUMP JUMPDEST DUP1 PUSH4 0x63CA21D7 EQ PUSH2 0x23D JUMPI DUP1 PUSH4 0x75829DEF EQ PUSH2 0x259 JUMPI DUP1 PUSH4 0x91D14854 EQ PUSH2 0x275 JUMPI DUP1 PUSH4 0xA217FDDF EQ PUSH2 0x2A5 JUMPI PUSH2 0x100 JUMP JUMPDEST DUP1 PUSH4 0x2AC08A93 GT PUSH2 0xD3 JUMPI DUP1 PUSH4 0x2AC08A93 EQ PUSH2 0x1B1 JUMPI DUP1 PUSH4 0x2F2FF15D EQ PUSH2 0x1E9 JUMPI DUP1 PUSH4 0x36568ABE EQ PUSH2 0x205 JUMPI DUP1 PUSH4 0x3A1B3D31 EQ PUSH2 0x221 JUMPI PUSH2 0x100 JUMP JUMPDEST DUP1 PUSH4 0x1FFC9A7 EQ PUSH2 0x105 JUMPI DUP1 PUSH4 0x92B3740 EQ PUSH2 0x135 JUMPI DUP1 PUSH4 0x120B93D3 EQ PUSH2 0x165 JUMPI DUP1 PUSH4 0x248A9CA3 EQ PUSH2 0x181 JUMPI JUMPDEST PUSH1 0x0 DUP1 REVERT JUMPDEST PUSH2 0x11F PUSH1 0x4 DUP1 CALLDATASIZE SUB DUP2 ADD SWAP1 PUSH2 0x11A SWAP2 SWAP1 PUSH2 0x1436 JUMP JUMPDEST PUSH2 0x34B JUMP JUMPDEST PUSH1 0x40 MLOAD PUSH2 0x12C SWAP2 SWAP1 PUSH2 0x147E JUMP JUMPDEST PUSH1 0x40 MLOAD DUP1 SWAP2 SUB SWAP1 RETURN JUMPDEST PUSH2 0x14F PUSH1 0x4 DUP1 CALLDATASIZE SUB DUP2 ADD SWAP1 PUSH2 0x14A SWAP2 SWAP1 PUSH2 0x14CF JUMP JUMPDEST PUSH2 0x3C5 JUMP JUMPDEST PUSH1 0x40 MLOAD PUSH2 0x15C SWAP2 SWAP1 PUSH2 0x172D JUMP JUMPDEST PUSH1 0x40 MLOAD DUP1 SWAP2 SUB SWAP1 RETURN JUMPDEST PUSH2 0x17F PUSH1 0x4 DUP1 CALLDATASIZE SUB DUP2 ADD SWAP1 PUSH2 0x17A SWAP2 SWAP1 PUSH2 0x177B JUMP JUMPDEST PUSH2 0x6EA JUMP JUMPDEST STOP JUMPDEST PUSH2 0x19B PUSH1 0x4 DUP1 CALLDATASIZE SUB DUP2 ADD SWAP1 PUSH2 0x196 SWAP2 SWAP1 PUSH2 0x17DE JUMP JUMPDEST PUSH2 0x726 JUMP JUMPDEST PUSH1 0x40 MLOAD PUSH2 0x1A8 SWAP2 SWAP1 PUSH2 0x181A JUMP JUMPDEST PUSH1 0x40 MLOAD DUP1 SWAP2 SUB SWAP1 RETURN JUMPDEST PUSH2 0x1CB PUSH1 0x4 DUP1 CALLDATASIZE SUB DUP2 ADD SWAP1 PUSH2 0x1C6 SWAP2 SWAP1 PUSH2 0x14CF JUMP JUMPDEST PUSH2 0x745 JUMP JUMPDEST PUSH1 0x40 MLOAD PUSH2 0x1E0 SWAP10 SWAP9 SWAP8 SWAP7 SWAP6 SWAP5 SWAP4 SWAP3 SWAP2 SWAP1 PUSH2 0x18AC JUMP JUMPDEST PUSH1 0x40 MLOAD DUP1 SWAP2 SUB SWAP1 RETURN JUMPDEST PUSH2 0x203 PUSH1 0x4 DUP1 CALLDATASIZE SUB DUP2 ADD SWAP1 PUSH2 0x1FE SWAP2 SWAP1 PUSH2 0x1955 JUMP JUMPDEST PUSH2 0x9E0 JUMP JUMPDEST STOP JUMPDEST PUSH2 0x21F PUSH1 0x4 DUP1 CALLDATASIZE SUB DUP2 ADD SWAP1 PUSH2 0x21A SWAP2 SWAP1 PUSH2 0x1955 JUMP JUMPDEST PUSH2 0xA02 JUMP JUMPDEST STOP JUMPDEST PUSH2 0x23B PUSH1 0x4 DUP1 CALLDATASIZE SUB DUP2 ADD SWAP1 PUSH2 0x236 SWAP2 SWAP1 PUSH2 0x19BA JUMP JUMPDEST PUSH2 0xA7D JUMP JUMPDEST STOP JUMPDEST PUSH2 0x257 PUSH1 0x4 DUP1 CALLDATASIZE SUB DUP2 ADD SWAP1 PUSH2 0x252 SWAP2 SWAP1 PUSH2 0x177B JUMP JUMPDEST PUSH2 0xB28 JUMP JUMPDEST STOP JUMPDEST PUSH2 0x273 PUSH1 0x4 DUP1 CALLDATASIZE SUB DUP2 ADD SWAP1 PUSH2 0x26E SWAP2 SWAP1 PUSH2 0x177B JUMP JUMPDEST PUSH2 0xBD3 JUMP JUMPDEST STOP JUMPDEST PUSH2 0x28F PUSH1 0x4 DUP1 CALLDATASIZE SUB DUP2 ADD SWAP1 PUSH2 0x28A SWAP2 SWAP1 PUSH2 0x1955 JUMP JUMPDEST PUSH2 0xC6E JUMP JUMPDEST PUSH1 0x40 MLOAD PUSH2 0x29C SWAP2 SWAP1 PUSH2 0x147E JUMP JUMPDEST PUSH1 0x40 MLOAD DUP1 SWAP2 SUB SWAP1 RETURN JUMPDEST PUSH2 0x2AD PUSH2 0xCD8 JUMP JUMPDEST PUSH1 0x40 MLOAD PUSH2 0x2BA SWAP2 SWAP1 PUSH2 0x181A JUMP JUMPDEST PUSH1 0x40 MLOAD DUP1 SWAP2 SUB SWAP1 RETURN JUMPDEST PUSH2 0x2CB PUSH2 0xCDF JUMP JUMPDEST PUSH1 0x40 MLOAD PUSH2 0x2D8 SWAP2 SWAP1 PUSH2 0x19FA JUMP JUMPDEST PUSH1 0x40 MLOAD DUP1 SWAP2 SUB SWAP1 RETURN JUMPDEST PUSH2 0x2FB PUSH1 0x4 DUP1 CALLDATASIZE SUB DUP2 ADD SWAP1 PUSH2 0x2F6 SWAP2 SWAP1 PUSH2 0x1955 JUMP JUMPDEST PUSH2 0xCE5 JUMP JUMPDEST STOP JUMPDEST PUSH2 0x305 PUSH2 0xD07 JUMP JUMPDEST PUSH1 0x40 MLOAD PUSH2 0x312 SWAP2 SWAP1 PUSH2 0x181A JUMP JUMPDEST PUSH1 0x40 MLOAD DUP1 SWAP2 SUB SWAP1 RETURN JUMPDEST PUSH2 0x335 PUSH1 0x4 DUP1 CALLDATASIZE SUB DUP2 ADD SWAP1 PUSH2 0x330 SWAP2 SWAP1 PUSH2 0x1A7A JUMP JUMPDEST PUSH2 0xD2B JUMP JUMPDEST PUSH1 0x40 MLOAD PUSH2 0x342 SWAP2 SWAP1 PUSH2 0x19FA JUMP JUMPDEST PUSH1 0x40 MLOAD DUP1 SWAP2 SUB SWAP1 RETURN JUMPDEST PUSH1 0x0 PUSH32 0x7965DB0B00000000000000000000000000000000000000000000000000000000 PUSH28 0xFFFFFFFFFFFFFFFFFFFFFFFFFFFFFFFFFFFFFFFFFFFFFFFFFFFFFFFF NOT AND DUP3 PUSH28 0xFFFFFFFFFFFFFFFFFFFFFFFFFFFFFFFFFFFFFFFFFFFFFFFFFFFFFFFF NOT AND EQ DUP1 PUSH2 0x3BE JUMPI POP PUSH2 0x3BD DUP3 PUSH2 0x10A6 JUMP JUMPDEST JUMPDEST SWAP1 POP SWAP2 SWAP1 POP JUMP JUMPDEST PUSH2 0x3CD PUSH2 0x1360 JUMP JUMPDEST PUSH1 0x1 PUSH1 0x0 DUP4 DUP2 MSTORE PUSH1 0x20 ADD SWAP1 DUP2 MSTORE PUSH1 0x20 ADD PUSH1 0x0 KECCAK256 PUSH1 0x40 MLOAD DUP1 PUSH2 0x120 ADD PUSH1 0x40 MSTORE SWAP1 DUP2 PUSH1 0x0 DUP3 ADD SLOAD DUP2 MSTORE PUSH1 0x20 ADD PUSH1 0x1 DUP3 ADD PUSH1 0x0 SWAP1 SLOAD SWAP1 PUSH2 0x100 EXP SWAP1 DIV PUSH20 0xFFFFFFFFFFFFFFFFFFFFFFFFFFFFFFFFFFFFFFFF AND PUSH20 0xFFFFFFFFFFFFFFFFFFFFFFFFFFFFFFFFFFFFFFFF AND PUSH20 0xFFFFFFFFFFFFFFFFFFFFFFFFFFFFFFFFFFFFFFFF AND DUP2 MSTORE PUSH1 0x20 ADD PUSH1 0x2 DUP3 ADD DUP1 SLOAD PUSH2 0x45C SWAP1 PUSH2 0x1BB9 JUMP JUMPDEST DUP1 PUSH1 0x1F ADD PUSH1 0x20 DUP1 SWAP2 DIV MUL PUSH1 0x20 ADD PUSH1 0x40 MLOAD SWAP1 DUP2 ADD PUSH1 0x40 MSTORE DUP1 SWAP3 SWAP2 SWAP1 DUP2 DUP2 MSTORE PUSH1 0x20 ADD DUP3 DUP1 SLOAD PUSH2 0x488 SWAP1 PUSH2 0x1BB9 JUMP JUMPDEST DUP1 ISZERO PUSH2 0x4D5 JUMPI DUP1 PUSH1 0x1F LT PUSH2 0x4AA JUMPI PUSH2 0x100 DUP1 DUP4 SLOAD DIV MUL DUP4 MSTORE SWAP2 PUSH1 0x20 ADD SWAP2 PUSH2 0x4D5 JUMP JUMPDEST DUP3 ADD SWAP2 SWAP1 PUSH1 0x0 MSTORE PUSH1 0x20 PUSH1 0x0 KECCAK256 SWAP1 JUMPDEST DUP2 SLOAD DUP2 MSTORE SWAP1 PUSH1 0x1 ADD SWAP1 PUSH1 0x20 ADD DUP1 DUP4 GT PUSH2 0x4B8 JUMPI DUP3 SWAP1 SUB PUSH1 0x1F AND DUP3 ADD SWAP2 JUMPDEST POP POP POP POP POP DUP2 MSTORE PUSH1 0x20 ADD PUSH1 0x3 DUP3 ADD DUP1 SLOAD PUSH2 0x4EE SWAP1 PUSH2 0x1BB9 JUMP JUMPDEST DUP1 PUSH1 0x1F ADD PUSH1 0x20 DUP1 SWAP2 DIV MUL PUSH1 0x20 ADD PUSH1 0x40 MLOAD SWAP1 DUP2 ADD PUSH1 0x40 MSTORE DUP1 SWAP3 SWAP2 SWAP1 DUP2 DUP2 MSTORE PUSH1 0x20 ADD DUP3 DUP1 SLOAD PUSH2 0x51A SWAP1 PUSH2 0x1BB9 JUMP JUMPDEST DUP1 ISZERO PUSH2 0x567 JUMPI DUP1 PUSH1 0x1F LT PUSH2 0x53C JUMPI PUSH2 0x100 DUP1 DUP4 SLOAD DIV MUL DUP4 MSTORE SWAP2 PUSH1 0x20 ADD SWAP2 PUSH2 0x567 JUMP JUMPDEST DUP3 ADD SWAP2 SWAP1 PUSH1 0x0 MSTORE PUSH1 0x20 PUSH1 0x0 KECCAK256 SWAP1 JUMPDEST DUP2 SLOAD DUP2 MSTORE SWAP1 PUSH1 0x1 ADD SWAP1 PUSH1 0x20 ADD DUP1 DUP4 GT PUSH2 0x54A JUMPI DUP3 SWAP1 SUB PUSH1 0x1F AND DUP3 ADD SWAP2 JUMPDEST POP POP POP POP POP DUP2 MSTORE PUSH1 0x20 ADD PUSH1 0x4 DUP3 ADD DUP1 SLOAD PUSH2 0x580 SWAP1 PUSH2 0x1BB9 JUMP JUMPDEST DUP1 PUSH1 0x1F ADD PUSH1 0x20 DUP1 SWAP2 DIV MUL PUSH1 0x20 ADD PUSH1 0x40 MLOAD SWAP1 DUP2 ADD PUSH1 0x40 MSTORE DUP1 SWAP3 SWAP2 SWAP1 DUP2 DUP2 MSTORE PUSH1 0x20 ADD DUP3 DUP1 SLOAD PUSH2 0x5AC SWAP1 PUSH2 0x1BB9 JUMP JUMPDEST DUP1 ISZERO PUSH2 0x5F9 JUMPI DUP1 PUSH1 0x1F LT PUSH2 0x5CE JUMPI PUSH2 0x100 DUP1 DUP4 SLOAD DIV MUL DUP4 MSTORE SWAP2 PUSH1 0x20 ADD SWAP2 PUSH2 0x5F9 JUMP JUMPDEST DUP3 ADD SWAP2 SWAP1 PUSH1 0x0 MSTORE PUSH1 0x20 PUSH1 0x0 KECCAK256 SWAP1 JUMPDEST DUP2 SLOAD DUP2 MSTORE SWAP1 PUSH1 0x1 ADD SWAP1 PUSH1 0x20 ADD DUP1 DUP4 GT PUSH2 0x5DC JUMPI DUP3 SWAP1 SUB PUSH1 0x1F AND DUP3 ADD SWAP2 JUMPDEST POP POP POP POP POP DUP2 MSTORE PUSH1 0x20 ADD PUSH1 0x5 DUP3 ADD SLOAD DUP2 MSTORE PUSH1 0x20 ADD PUSH1 0x6 DUP3 ADD DUP1 SLOAD PUSH2 0x61C SWAP1 PUSH2 0x1BB9 JUMP JUMPDEST DUP1 PUSH1 0x1F ADD PUSH1 0x20 DUP1 SWAP2 DIV MUL PUSH1 0x20 ADD PUSH1 0x40 MLOAD SWAP1 DUP2 ADD PUSH1 0x40 MSTORE DUP1 SWAP3 SWAP2 SWAP1 DUP2 DUP2 MSTORE PUSH1 0x20 ADD DUP3 DUP1 SLOAD PUSH2 0x648 SWAP1 PUSH2 0x1BB9 JUMP JUMPDEST DUP1 ISZERO PUSH2 0x695 JUMPI DUP1 PUSH1 0x1F LT PUSH2 0x66A JUMPI PUSH2 0x100 DUP1 DUP4 SLOAD DIV MUL DUP4 MSTORE SWAP2 PUSH1 0x20 ADD SWAP2 PUSH2 0x695 JUMP JUMPDEST DUP3 ADD SWAP2 SWAP1 PUSH1 0x0 MSTORE PUSH1 0x20 PUSH1 0x0 KECCAK256 SWAP1 JUMPDEST DUP2 SLOAD DUP2 MSTORE SWAP1 PUSH1 0x1 ADD SWAP1 PUSH1 0x20 ADD DUP1 DUP4 GT PUSH2 0x678 JUMPI DUP3 SWAP1 SUB PUSH1 0x1F AND DUP3 ADD SWAP2 JUMPDEST POP POP POP POP POP DUP2 MSTORE PUSH1 0x20 ADD PUSH1 0x7 DUP3 ADD PUSH1 0x0 SWAP1 SLOAD SWAP1 PUSH2 0x100 EXP SWAP1 DIV PUSH1 0xFF AND PUSH1 0x3 DUP2 GT ISZERO PUSH2 0x6C3 JUMPI PUSH2 0x6C2 PUSH2 0x15DC JUMP JUMPDEST JUMPDEST PUSH1 0x3 DUP2 GT ISZERO PUSH2 0x6D5 JUMPI PUSH2 0x6D4 PUSH2 0x15DC JUMP JUMPDEST JUMPDEST DUP2 MSTORE PUSH1 0x20 ADD PUSH1 0x8 DUP3 ADD SLOAD DUP2 MSTORE POP POP SWAP1 POP SWAP2 SWAP1 POP JUMP JUMPDEST PUSH1 0x0 DUP1 SHL PUSH2 0x6F7 DUP2 PUSH2 0x1110 JUMP JUMPDEST PUSH2 0x721 PUSH32 0xFBD454F36A7E1A388BD6FC3AB10D434AA4578F811ACBBCF33AFB1C697486313C DUP4 PUSH2 0x1124 JUMP JUMPDEST POP POP POP JUMP JUMPDEST PUSH1 0x0 DUP1 PUSH1 0x0 DUP4 DUP2 MSTORE PUSH1 0x20 ADD SWAP1 DUP2 MSTORE PUSH1 0x20 ADD PUSH1 0x0 KECCAK256 PUSH1 0x1 ADD SLOAD SWAP1 POP SWAP2 SWAP1 POP JUMP JUMPDEST PUSH1 0x1 PUSH1 0x20 MSTORE DUP1 PUSH1 0x0 MSTORE PUSH1 0x40 PUSH1 0x0 KECCAK256 PUSH1 0x0 SWAP2 POP SWAP1 POP DUP1 PUSH1 0x0 ADD SLOAD SWAP1 DUP1 PUSH1 0x1 ADD PUSH1 0x0 SWAP1 SLOAD SWAP1 PUSH2 0x100 EXP SWAP1 DIV PUSH20 0xFFFFFFFFFFFFFFFFFFFFFFFFFFFFFFFFFFFFFFFF AND SWAP1 DUP1 PUSH1 0x2 ADD DUP1 SLOAD PUSH2 0x794 SWAP1 PUSH2 0x1BB9 JUMP JUMPDEST DUP1 PUSH1 0x1F ADD PUSH1 0x20 DUP1 SWAP2 DIV MUL PUSH1 0x20 ADD PUSH1 0x40 MLOAD SWAP1 DUP2 ADD PUSH1 0x40 MSTORE DUP1 SWAP3 SWAP2 SWAP1 DUP2 DUP2 MSTORE PUSH1 0x20 ADD DUP3 DUP1 SLOAD PUSH2 0x7C0 SWAP1 PUSH2 0x1BB9 JUMP JUMPDEST DUP1 ISZERO PUSH2 0x80D JUMPI DUP1 PUSH1 0x1F LT PUSH2 0x7E2 JUMPI PUSH2 0x100 DUP1 DUP4 SLOAD DIV MUL DUP4 MSTORE SWAP2 PUSH1 0x20 ADD SWAP2 PUSH2 0x80D JUMP JUMPDEST DUP3 ADD SWAP2 SWAP1 PUSH1 0x0 MSTORE PUSH1 0x20 PUSH1 0x0 KECCAK256 SWAP1 JUMPDEST DUP2 SLOAD DUP2 MSTORE SWAP1 PUSH1 0x1 ADD SWAP1 PUSH1 0x20 ADD DUP1 DUP4 GT PUSH2 0x7F0 JUMPI DUP3 SWAP1 SUB PUSH1 0x1F AND DUP3 ADD SWAP2 JUMPDEST POP POP POP POP POP SWAP1 DUP1 PUSH1 0x3 ADD DUP1 SLOAD PUSH2 0x822 SWAP1 PUSH2 0x1BB9 JUMP JUMPDEST DUP1 PUSH1 0x1F ADD PUSH1 0x20 DUP1 SWAP2 DIV MUL PUSH1 0x20 ADD PUSH1 0x40 MLOAD SWAP1 DUP2 ADD PUSH1 0x40 MSTORE DUP1 SWAP3 SWAP2 SWAP1 DUP2 DUP2 MSTORE PUSH1 0x20 ADD DUP3 DUP1 SLOAD PUSH2 0x84E SWAP1 PUSH2 0x1BB9 JUMP JUMPDEST DUP1 ISZERO PUSH2 0x89B JUMPI DUP1 PUSH1 0x1F LT PUSH2 0x870 JUMPI PUSH2 0x100 DUP1 DUP4 SLOAD DIV MUL DUP4 MSTORE SWAP2 PUSH1 0x20 ADD SWAP2 PUSH2 0x89B JUMP JUMPDEST DUP3 ADD SWAP2 SWAP1 PUSH1 0x0 MSTORE PUSH1 0x20 PUSH1 0x0 KECCAK256 SWAP1 JUMPDEST DUP2 SLOAD DUP2 MSTORE SWAP1 PUSH1 0x1 ADD SWAP1 PUSH1 0x20 ADD DUP1 DUP4 GT PUSH2 0x87E JUMPI DUP3 SWAP1 SUB PUSH1 0x1F AND DUP3 ADD SWAP2 JUMPDEST POP POP POP POP POP SWAP1 DUP1 PUSH1 0x4 ADD DUP1 SLOAD PUSH2 0x8B0 SWAP1 PUSH2 0x1BB9 JUMP JUMPDEST DUP1 PUSH1 0x1F ADD PUSH1 0x20 DUP1 SWAP2 DIV MUL PUSH1 0x20 ADD PUSH1 0x40 MLOAD SWAP1 DUP2 ADD PUSH1 0x40 MSTORE DUP1 SWAP3 SWAP2 SWAP1 DUP2 DUP2 MSTORE PUSH1 0x20 ADD DUP3 DUP1 SLOAD PUSH2 0x8DC SWAP1 PUSH2 0x1BB9 JUMP JUMPDEST DUP1 ISZERO PUSH2 0x929 JUMPI DUP1 PUSH1 0x1F LT PUSH2 0x8FE JUMPI PUSH2 0x100 DUP1 DUP4 SLOAD DIV MUL DUP4 MSTORE SWAP2 PUSH1 0x20 ADD SWAP2 PUSH2 0x929 JUMP JUMPDEST DUP3 ADD SWAP2 SWAP1 PUSH1 0x0 MSTORE PUSH1 0x20 PUSH1 0x0 KECCAK256 SWAP1 JUMPDEST DUP2 SLOAD DUP2 MSTORE SWAP1 PUSH1 0x1 ADD SWAP1 PUSH1 0x20 ADD DUP1 DUP4 GT PUSH2 0x90C JUMPI DUP3 SWAP1 SUB PUSH1 0x1F AND DUP3 ADD SWAP2 JUMPDEST POP POP POP POP POP SWAP1 DUP1 PUSH1 0x5 ADD SLOAD SWAP1 DUP1 PUSH1 0x6 ADD DUP1 SLOAD PUSH2 0x944 SWAP1 PUSH2 0x1BB9 JUMP JUMPDEST DUP1 PUSH1 0x1F ADD PUSH1 0x20 DUP1 SWAP2 DIV MUL PUSH1 0x20 ADD PUSH1 0x40 MLOAD SWAP1 DUP2 ADD PUSH1 0x40 MSTORE DUP1 SWAP3 SWAP2 SWAP1 DUP2 DUP2 MSTORE PUSH1 0x20 ADD DUP3 DUP1 SLOAD PUSH2 0x970 SWAP1 PUSH2 0x1BB9 JUMP JUMPDEST DUP1 ISZERO PUSH2 0x9BD JUMPI DUP1 PUSH1 0x1F LT PUSH2 0x992 JUMPI PUSH2 0x100 DUP1 DUP4 SLOAD DIV MUL DUP4 MSTORE SWAP2 PUSH1 0x20 ADD SWAP2 PUSH2 0x9BD JUMP JUMPDEST DUP3 ADD SWAP2 SWAP1 PUSH1 0x0 MSTORE PUSH1 0x20 PUSH1 0x0 KECCAK256 SWAP1 JUMPDEST DUP2 SLOAD DUP2 MSTORE SWAP1 PUSH1 0x1 ADD SWAP1 PUSH1 0x20 ADD DUP1 DUP4 GT PUSH2 0x9A0 JUMPI DUP3 SWAP1 SUB PUSH1 0x1F AND DUP3 ADD SWAP2 JUMPDEST POP POP POP POP POP SWAP1 DUP1 PUSH1 0x7 ADD PUSH1 0x0 SWAP1 SLOAD SWAP1 PUSH2 0x100 EXP SWAP1 DIV PUSH1 0xFF AND SWAP1 DUP1 PUSH1 0x8 ADD SLOAD SWAP1 POP DUP10 JUMP JUMPDEST PUSH2 0x9E9 DUP3 PUSH2 0x726 JUMP JUMPDEST PUSH2 0x9F2 DUP2 PUSH2 0x1110 JUMP JUMPDEST PUSH2 0x9FC DUP4 DUP4 PUSH2 0x1216 JUMP JUMPDEST POP POP POP POP JUMP JUMPDEST PUSH2 0xA0A PUSH2 0x1307 JUMP JUMPDEST PUSH20 0xFFFFFFFFFFFFFFFFFFFFFFFFFFFFFFFFFFFFFFFF AND DUP2 PUSH20 0xFFFFFFFFFFFFFFFFFFFFFFFFFFFFFFFFFFFFFFFF AND EQ PUSH2 0xA6E JUMPI PUSH1 0x40 MLOAD PUSH32 0x6697B23200000000000000000000000000000000000000000000000000000000 DUP2 MSTORE PUSH1 0x4 ADD PUSH1 0x40 MLOAD DUP1 SWAP2 SUB SWAP1 REVERT JUMPDEST PUSH2 0xA78 DUP3 DUP3 PUSH2 0x1124 JUMP JUMPDEST POP POP POP JUMP JUMPDEST PUSH32 0xFBD454F36A7E1A388BD6FC3AB10D434AA4578F811ACBBCF33AFB1C697486313C PUSH2 0xAA7 DUP2 PUSH2 0x1110 JUMP JUMPDEST PUSH1 0x0 PUSH1 0x1 PUSH1 0x0 DUP6 DUP2 MSTORE PUSH1 0x20 ADD SWAP1 DUP2 MSTORE PUSH1 0x20 ADD PUSH1 0x0 KECCAK256 SWAP1 POP DUP3 DUP2 PUSH1 0x7 ADD PUSH1 0x0 PUSH2 0x100 EXP DUP2 SLOAD DUP2 PUSH1 0xFF MUL NOT AND SWAP1 DUP4 PUSH1 0x3 DUP2 GT ISZERO PUSH2 0xAE5 JUMPI PUSH2 0xAE4 PUSH2 0x15DC JUMP JUMPDEST JUMPDEST MUL OR SWAP1 SSTORE POP DUP4 PUSH32 0x8E16B4336DC88D11F2B19383604580B7FC6349DF052BC9232D52CE1A40DF6C4D DUP5 PUSH1 0x40 MLOAD PUSH2 0xB1A SWAP2 SWAP1 PUSH2 0x1BEA JUMP JUMPDEST PUSH1 0x40 MLOAD DUP1 SWAP2 SUB SWAP1 LOG2 POP POP POP POP JUMP JUMPDEST PUSH1 0x0 DUP1 SHL PUSH2 0xB35 DUP2 PUSH2 0x1110 JUMP JUMPDEST PUSH1 0x0 PUSH20 0xFFFFFFFFFFFFFFFFFFFFFFFFFFFFFFFFFFFFFFFF AND DUP3 PUSH20 0xFFFFFFFFFFFFFFFFFFFFFFFFFFFFFFFFFFFFFFFF AND SUB PUSH2 0xBA4 JUMPI PUSH1 0x40 MLOAD PUSH32 0x8C379A000000000000000000000000000000000000000000000000000000000 DUP2 MSTORE PUSH1 0x4 ADD PUSH2 0xB9B SWAP1 PUSH2 0x1C51 JUMP JUMPDEST PUSH1 0x40 MLOAD DUP1 SWAP2 SUB SWAP1 REVERT JUMPDEST PUSH2 0xBCE PUSH32 0xFBD454F36A7E1A388BD6FC3AB10D434AA4578F811ACBBCF33AFB1C697486313C DUP4 PUSH2 0x1216 JUMP JUMPDEST POP POP POP JUMP JUMPDEST PUSH1 0x0 DUP1 SHL PUSH2 0xBE0 DUP2 PUSH2 0x1110 JUMP JUMPDEST PUSH1 0x0 PUSH20 0xFFFFFFFFFFFFFFFFFFFFFFFFFFFFFFFFFFFFFFFF AND DUP3 PUSH20 0xFFFFFFFFFFFFFFFFFFFFFFFFFFFFFFFFFFFFFFFF AND SUB PUSH2 0xC4F JUMPI PUSH1 0x40 MLOAD PUSH32 0x8C379A000000000000000000000000000000000000000000000000000000000 DUP2 MSTORE PUSH1 0x4 ADD PUSH2 0xC46 SWAP1 PUSH2 0x1CBD JUMP JUMPDEST PUSH1 0x40 MLOAD DUP1 SWAP2 SUB SWAP1 REVERT JUMPDEST PUSH2 0xC5C PUSH1 0x0 DUP1 SHL DUP4 PUSH2 0x1216 JUMP JUMPDEST POP PUSH2 0xC6A PUSH1 0x0 DUP1 SHL CALLER PUSH2 0xA02 JUMP JUMPDEST POP POP JUMP JUMPDEST PUSH1 0x0 DUP1 PUSH1 0x0 DUP5 DUP2 MSTORE PUSH1 0x20 ADD SWAP1 DUP2 MSTORE PUSH1 0x20 ADD PUSH1 0x0 KECCAK256 PUSH1 0x0 ADD PUSH1 0x0 DUP4 PUSH20 0xFFFFFFFFFFFFFFFFFFFFFFFFFFFFFFFFFFFFFFFF AND PUSH20 0xFFFFFFFFFFFFFFFFFFFFFFFFFFFFFFFFFFFFFFFF AND DUP2 MSTORE PUSH1 0x20 ADD SWAP1 DUP2 MSTORE PUSH1 0x20 ADD PUSH1 0x0 KECCAK256 PUSH1 0x0 SWAP1 SLOAD SWAP1 PUSH2 0x100 EXP SWAP1 DIV PUSH1 0xFF AND SWAP1 POP SWAP3 SWAP2 POP POP JUMP JUMPDEST PUSH1 0x0 DUP1 SHL DUP2 JUMP JUMPDEST PUSH1 0x2 SLOAD DUP2 JUMP JUMPDEST PUSH2 0xCEE DUP3 PUSH2 0x726 JUMP JUMPDEST PUSH2 0xCF7 DUP2 PUSH2 0x1110 JUMP JUMPDEST PUSH2 0xD01 DUP4 DUP4 PUSH2 0x1124 JUMP JUMPDEST POP POP POP POP JUMP JUMPDEST PUSH32 0xFBD454F36A7E1A388BD6FC3AB10D434AA4578F811ACBBCF33AFB1C697486313C DUP2 JUMP JUMPDEST PUSH1 0x0 PUSH32 0xFBD454F36A7E1A388BD6FC3AB10D434AA4578F811ACBBCF33AFB1C697486313C PUSH2 0xD57 DUP2 PUSH2 0x1110 JUMP JUMPDEST PUSH1 0x0 DUP6 GT PUSH2 0xD9A JUMPI PUSH1 0x40 MLOAD PUSH32 0x8C379A000000000000000000000000000000000000000000000000000000000 DUP2 MSTORE PUSH1 0x4 ADD PUSH2 0xD91 SWAP1 PUSH2 0x1D29 JUMP JUMPDEST PUSH1 0x40 MLOAD DUP1 SWAP2 SUB SWAP1 REVERT JUMPDEST PUSH1 0x0 PUSH1 0x2 PUSH1 0x0 DUP2 SLOAD DUP1 SWAP3 SWAP2 SWAP1 PUSH2 0xDAF SWAP1 PUSH2 0x1D78 JUMP JUMPDEST SWAP2 SWAP1 POP SSTORE SWAP1 POP PUSH1 0x40 MLOAD DUP1 PUSH2 0x120 ADD PUSH1 0x40 MSTORE DUP1 DUP15 DUP2 MSTORE PUSH1 0x20 ADD CALLER PUSH20 0xFFFFFFFFFFFFFFFFFFFFFFFFFFFFFFFFFFFFFFFF AND DUP2 MSTORE PUSH1 0x20 ADD DUP14 DUP14 DUP1 DUP1 PUSH1 0x1F ADD PUSH1 0x20 DUP1 SWAP2 DIV MUL PUSH1 0x20 ADD PUSH1 0x40 MLOAD SWAP1 DUP2 ADD PUSH1 0x40 MSTORE DUP1 SWAP4 SWAP3 SWAP2 SWAP1 DUP2 DUP2 MSTORE PUSH1 0x20 ADD DUP4 DUP4 DUP1 DUP3 DUP5 CALLDATACOPY PUSH1 0x0 DUP2 DUP5 ADD MSTORE PUSH1 0x1F NOT PUSH1 0x1F DUP3 ADD AND SWAP1 POP DUP1 DUP4 ADD SWAP3 POP POP POP POP POP POP POP DUP2 MSTORE PUSH1 0x20 ADD DUP12 DUP12 DUP1 DUP1 PUSH1 0x1F ADD PUSH1 0x20 DUP1 SWAP2 DIV MUL PUSH1 0x20 ADD PUSH1 0x40 MLOAD SWAP1 DUP2 ADD PUSH1 0x40 MSTORE DUP1 SWAP4 SWAP3 SWAP2 SWAP1 DUP2 DUP2 MSTORE PUSH1 0x20 ADD DUP4 DUP4 DUP1 DUP3 DUP5 CALLDATACOPY PUSH1 0x0 DUP2 DUP5 ADD MSTORE PUSH1 0x1F NOT PUSH1 0x1F DUP3 ADD AND SWAP1 POP DUP1 DUP4 ADD SWAP3 POP POP POP POP POP POP POP DUP2 MSTORE PUSH1 0x20 ADD DUP10 DUP10 DUP1 DUP1 PUSH1 0x1F ADD PUSH1 0x20 DUP1 SWAP2 DIV MUL PUSH1 0x20 ADD PUSH1 0x40 MLOAD SWAP1 DUP2 ADD PUSH1 0x40 MSTORE DUP1 SWAP4 SWAP3 SWAP2 SWAP1 DUP2 DUP2 MSTORE PUSH1 0x20 ADD DUP4 DUP4 DUP1 DUP3 DUP5 CALLDATACOPY PUSH1 0x0 DUP2 DUP5 ADD MSTORE PUSH1 0x1F NOT PUSH1 0x1F DUP3 ADD AND SWAP1 POP DUP1 DUP4 ADD SWAP3 POP POP POP POP POP POP POP DUP2 MSTORE PUSH1 0x20 ADD DUP8 DUP2 MSTORE PUSH1 0x20 ADD DUP7 DUP7 DUP1 DUP1 PUSH1 0x1F ADD PUSH1 0x20 DUP1 SWAP2 DIV MUL PUSH1 0x20 ADD PUSH1 0x40 MLOAD SWAP1 DUP2 ADD PUSH1 0x40 MSTORE DUP1 SWAP4 SWAP3 SWAP2 SWAP1 DUP2 DUP2 MSTORE PUSH1 0x20 ADD DUP4 DUP4 DUP1 DUP3 DUP5 CALLDATACOPY PUSH1 0x0 DUP2 DUP5 ADD MSTORE PUSH1 0x1F NOT PUSH1 0x1F DUP3 ADD AND SWAP1 POP DUP1 DUP4 ADD SWAP3 POP POP POP POP POP POP POP DUP2 MSTORE PUSH1 0x20 ADD PUSH1 0x1 PUSH1 0x3 DUP2 GT ISZERO PUSH2 0xF25 JUMPI PUSH2 0xF24 PUSH2 0x15DC JUMP JUMPDEST JUMPDEST DUP2 MSTORE PUSH1 0x20 ADD TIMESTAMP DUP2 MSTORE POP PUSH1 0x1 PUSH1 0x0 DUP4 DUP2 MSTORE PUSH1 0x20 ADD SWAP1 DUP2 MSTORE PUSH1 0x20 ADD PUSH1 0x0 KECCAK256 PUSH1 0x0 DUP3 ADD MLOAD DUP2 PUSH1 0x0 ADD SSTORE PUSH1 0x20 DUP3 ADD MLOAD DUP2 PUSH1 0x1 ADD PUSH1 0x0 PUSH2 0x100 EXP DUP2 SLOAD DUP2 PUSH20 0xFFFFFFFFFFFFFFFFFFFFFFFFFFFFFFFFFFFFFFFF MUL NOT AND SWAP1 DUP4 PUSH20 0xFFFFFFFFFFFFFFFFFFFFFFFFFFFFFFFFFFFFFFFF AND MUL OR SWAP1 SSTORE POP PUSH1 0x40 DUP3 ADD MLOAD DUP2 PUSH1 0x2 ADD SWAP1 DUP2 PUSH2 0xFA7 SWAP2 SWAP1 PUSH2 0x1F9B JUMP JUMPDEST POP PUSH1 0x60 DUP3 ADD MLOAD DUP2 PUSH1 0x3 ADD SWAP1 DUP2 PUSH2 0xFBD SWAP2 SWAP1 PUSH2 0x1F9B JUMP JUMPDEST POP PUSH1 0x80 DUP3 ADD MLOAD DUP2 PUSH1 0x4 ADD SWAP1 DUP2 PUSH2 0xFD3 SWAP2 SWAP1 PUSH2 0x1F9B JUMP JUMPDEST POP PUSH1 0xA0 DUP3 ADD MLOAD DUP2 PUSH1 0x5 ADD SSTORE PUSH1 0xC0 DUP3 ADD MLOAD DUP2 PUSH1 0x6 ADD SWAP1 DUP2 PUSH2 0xFF3 SWAP2 SWAP1 PUSH2 0x1F9B JUMP JUMPDEST POP PUSH1 0xE0 DUP3 ADD MLOAD DUP2 PUSH1 0x7 ADD PUSH1 0x0 PUSH2 0x100 EXP DUP2 SLOAD DUP2 PUSH1 0xFF MUL NOT AND SWAP1 DUP4 PUSH1 0x3 DUP2 GT ISZERO PUSH2 0x101F JUMPI PUSH2 0x101E PUSH2 0x15DC JUMP JUMPDEST JUMPDEST MUL OR SWAP1 SSTORE POP PUSH2 0x100 DUP3 ADD MLOAD DUP2 PUSH1 0x8 ADD SSTORE SWAP1 POP POP CALLER PUSH20 0xFFFFFFFFFFFFFFFFFFFFFFFFFFFFFFFFFFFFFFFF AND DUP2 PUSH32 0xA399411F5467011ED0F04E1E4B2A061F845321FC698443E1045E3A557D2331CB DUP16 DUP16 DUP16 DUP16 DUP16 DUP16 DUP16 DUP16 DUP16 DUP16 PUSH1 0x40 MLOAD PUSH2 0x108B SWAP11 SWAP10 SWAP9 SWAP8 SWAP7 SWAP6 SWAP5 SWAP4 SWAP3 SWAP2 SWAP1 PUSH2 0x20A9 JUMP JUMPDEST PUSH1 0x40 MLOAD DUP1 SWAP2 SUB SWAP1 LOG3 DUP1 SWAP3 POP POP POP SWAP11 SWAP10 POP POP POP POP POP POP POP POP POP POP JUMP JUMPDEST PUSH1 0x0 PUSH32 0x1FFC9A700000000000000000000000000000000000000000000000000000000 PUSH28 0xFFFFFFFFFFFFFFFFFFFFFFFFFFFFFFFFFFFFFFFFFFFFFFFFFFFFFFFF NOT AND DUP3 PUSH28 0xFFFFFFFFFFFFFFFFFFFFFFFFFFFFFFFFFFFFFFFFFFFFFFFFFFFFFFFF NOT AND EQ SWAP1 POP SWAP2 SWAP1 POP JUMP JUMPDEST PUSH2 0x1121 DUP2 PUSH2 0x111C PUSH2 0x1307 JUMP JUMPDEST PUSH2 0x130F JUMP JUMPDEST POP JUMP JUMPDEST PUSH1 0x0 PUSH2 0x1130 DUP4 DUP4 PUSH2 0xC6E JUMP JUMPDEST ISZERO PUSH2 0x120B JUMPI PUSH1 0x0 DUP1 PUSH1 0x0 DUP6 DUP2 MSTORE PUSH1 0x20 ADD SWAP1 DUP2 MSTORE PUSH1 0x20 ADD PUSH1 0x0 KECCAK256 PUSH1 0x0 ADD PUSH1 0x0 DUP5 PUSH20 0xFFFFFFFFFFFFFFFFFFFFFFFFFFFFFFFFFFFFFFFF AND PUSH20 0xFFFFFFFFFFFFFFFFFFFFFFFFFFFFFFFFFFFFFFFF AND DUP2 MSTORE PUSH1 0x20 ADD SWAP1 DUP2 MSTORE PUSH1 0x20 ADD PUSH1 0x0 KECCAK256 PUSH1 0x0 PUSH2 0x100 EXP DUP2 SLOAD DUP2 PUSH1 0xFF MUL NOT AND SWAP1 DUP4 ISZERO ISZERO MUL OR SWAP1 SSTORE POP PUSH2 0x11A8 PUSH2 0x1307 JUMP JUMPDEST PUSH20 0xFFFFFFFFFFFFFFFFFFFFFFFFFFFFFFFFFFFFFFFF AND DUP3 PUSH20 0xFFFFFFFFFFFFFFFFFFFFFFFFFFFFFFFFFFFFFFFF AND DUP5 PUSH32 0xF6391F5C32D9C69D2A47EA670B442974B53935D1EDC7FD64EB21E047A839171B PUSH1 0x40 MLOAD PUSH1 0x40 MLOAD DUP1 SWAP2 SUB SWAP1 LOG4 PUSH1 0x1 SWAP1 POP PUSH2 0x1210 JUMP JUMPDEST PUSH1 0x0 SWAP1 POP JUMPDEST SWAP3 SWAP2 POP POP JUMP JUMPDEST PUSH1 0x0 PUSH2 0x1222 DUP4 DUP4 PUSH2 0xC6E JUMP JUMPDEST PUSH2 0x12FC JUMPI PUSH1 0x1 PUSH1 0x0 DUP1 DUP6 DUP2 MSTORE PUSH1 0x20 ADD SWAP1 DUP2 MSTORE PUSH1 0x20 ADD PUSH1 0x0 KECCAK256 PUSH1 0x0 ADD PUSH1 0x0 DUP5 PUSH20 0xFFFFFFFFFFFFFFFFFFFFFFFFFFFFFFFFFFFFFFFF AND PUSH20 0xFFFFFFFFFFFFFFFFFFFFFFFFFFFFFFFFFFFFFFFF AND DUP2 MSTORE PUSH1 0x20 ADD SWAP1 DUP2 MSTORE PUSH1 0x20 ADD PUSH1 0x0 KECCAK256 PUSH1 0x0 PUSH2 0x100 EXP DUP2 SLOAD DUP2 PUSH1 0xFF MUL NOT AND SWAP1 DUP4 ISZERO ISZERO MUL OR SWAP1 SSTORE POP PUSH2 0x1299 PUSH2 0x1307 JUMP JUMPDEST PUSH20 0xFFFFFFFFFFFFFFFFFFFFFFFFFFFFFFFFFFFFFFFF AND DUP3 PUSH20 0xFFFFFFFFFFFFFFFFFFFFFFFFFFFFFFFFFFFFFFFF AND DUP5 PUSH32 0x2F8788117E7EFF1D82E926EC794901D17C78024A50270940304540A733656F0D PUSH1 0x40 MLOAD PUSH1 0x40 MLOAD DUP1 SWAP2 SUB SWAP1 LOG4 PUSH1 0x1 SWAP1 POP PUSH2 0x1301 JUMP JUMPDEST PUSH1 0x0 SWAP1 POP JUMPDEST SWAP3 SWAP2 POP POP JUMP JUMPDEST PUSH1 0x0 CALLER SWAP1 POP SWAP1 JUMP JUMPDEST PUSH2 0x1319 DUP3 DUP3 PUSH2 0xC6E JUMP JUMPDEST PUSH2 0x135C JUMPI DUP1 DUP3 PUSH1 0x40 MLOAD PUSH32 0xE2517D3F00000000000000000000000000000000000000000000000000000000 DUP2 MSTORE PUSH1 0x4 ADD PUSH2 0x1353 SWAP3 SWAP2 SWAP1 PUSH2 0x212E JUMP JUMPDEST PUSH1 0x40 MLOAD DUP1 SWAP2 SUB SWAP1 REVERT JUMPDEST POP POP JUMP JUMPDEST PUSH1 0x40 MLOAD DUP1 PUSH2 0x120 ADD PUSH1 0x40 MSTORE DUP1 PUSH1 0x0 DUP2 MSTORE PUSH1 0x20 ADD PUSH1 0x0 PUSH20 0xFFFFFFFFFFFFFFFFFFFFFFFFFFFFFFFFFFFFFFFF AND DUP2 MSTORE PUSH1 0x20 ADD PUSH1 0x60 DUP2 MSTORE PUSH1 0x20 ADD PUSH1 0x60 DUP2 MSTORE PUSH1 0x20 ADD PUSH1 0x60 DUP2 MSTORE PUSH1 0x20 ADD PUSH1 0x0 DUP2 MSTORE PUSH1 0x20 ADD PUSH1 0x60 DUP2 MSTORE PUSH1 0x20 ADD PUSH1 0x0 PUSH1 0x3 DUP2 GT ISZERO PUSH2 0x13C7 JUMPI PUSH2 0x13C6 PUSH2 0x15DC JUMP JUMPDEST JUMPDEST DUP2 MSTORE PUSH1 0x20 ADD PUSH1 0x0 DUP2 MSTORE POP SWAP1 JUMP JUMPDEST PUSH1 0x0 DUP1 REVERT JUMPDEST PUSH1 0x0 DUP1 REVERT JUMPDEST PUSH1 0x0 PUSH32 0xFFFFFFFF00000000000000000000000000000000000000000000000000000000 DUP3 AND SWAP1 POP SWAP2 SWAP1 POP JUMP JUMPDEST PUSH2 0x1413 DUP2 PUSH2 0x13DE JUMP JUMPDEST DUP2 EQ PUSH2 0x141E JUMPI PUSH1 0x0 DUP1 REVERT JUMPDEST POP JUMP JUMPDEST PUSH1 0x0 DUP2 CALLDATALOAD SWAP1 POP PUSH2 0x1430 DUP2 PUSH2 0x140A JUMP JUMPDEST SWAP3 SWAP2 POP POP JUMP JUMPDEST PUSH1 0x0 PUSH1 0x20 DUP3 DUP5 SUB SLT ISZERO PUSH2 0x144C JUMPI PUSH2 0x144B PUSH2 0x13D4 JUMP JUMPDEST JUMPDEST PUSH1 0x0 PUSH2 0x145A DUP5 DUP3 DUP6 ADD PUSH2 0x1421 JUMP JUMPDEST SWAP2 POP POP SWAP3 SWAP2 POP POP JUMP JUMPDEST PUSH1 0x0 DUP2 ISZERO ISZERO SWAP1 POP SWAP2 SWAP1 POP JUMP JUMPDEST PUSH2 0x1478 DUP2 PUSH2 0x1463 JUMP JUMPDEST DUP3 MSTORE POP POP JUMP JUMPDEST PUSH1 0x0 PUSH1 0x20 DUP3 ADD SWAP1 POP PUSH2 0x1493 PUSH1 0x0 DUP4 ADD DUP5 PUSH2 0x146F JUMP JUMPDEST SWAP3 SWAP2 POP POP JUMP JUMPDEST PUSH1 0x0 DUP2 SWAP1 POP SWAP2 SWAP1 POP JUMP JUMPDEST PUSH2 0x14AC DUP2 PUSH2 0x1499 JUMP JUMPDEST DUP2 EQ PUSH2 0x14B7 JUMPI PUSH1 0x0 DUP1 REVERT JUMPDEST POP JUMP JUMPDEST PUSH1 0x0 DUP2 CALLDATALOAD SWAP1 POP PUSH2 0x14C9 DUP2 PUSH2 0x14A3 JUMP JUMPDEST SWAP3 SWAP2 POP POP JUMP JUMPDEST PUSH1 0x0 PUSH1 0x20 DUP3 DUP5 SUB SLT ISZERO PUSH2 0x14E5 JUMPI PUSH2 0x14E4 PUSH2 0x13D4 JUMP JUMPDEST JUMPDEST PUSH1 0x0 PUSH2 0x14F3 DUP5 DUP3 DUP6 ADD PUSH2 0x14BA JUMP JUMPDEST SWAP2 POP POP SWAP3 SWAP2 POP POP JUMP JUMPDEST PUSH2 0x1505 DUP2 PUSH2 0x1499 JUMP JUMPDEST DUP3 MSTORE POP POP JUMP JUMPDEST PUSH1 0x0 PUSH20 0xFFFFFFFFFFFFFFFFFFFFFFFFFFFFFFFFFFFFFFFF DUP3 AND SWAP1 POP SWAP2 SWAP1 POP JUMP JUMPDEST PUSH1 0x0 PUSH2 0x1536 DUP3 PUSH2 0x150B JUMP JUMPDEST SWAP1 POP SWAP2 SWAP1 POP JUMP JUMPDEST PUSH2 0x1546 DUP2 PUSH2 0x152B JUMP JUMPDEST DUP3 MSTORE POP POP JUMP JUMPDEST PUSH1 0x0 DUP2 MLOAD SWAP1 POP SWAP2 SWAP1 POP JUMP JUMPDEST PUSH1 0x0 DUP3 DUP3 MSTORE PUSH1 0x20 DUP3 ADD SWAP1 POP SWAP3 SWAP2 POP POP JUMP JUMPDEST PUSH1 0x0 JUMPDEST DUP4 DUP2 LT ISZERO PUSH2 0x1586 JUMPI DUP1 DUP3 ADD MLOAD DUP2 DUP5 ADD MSTORE PUSH1 0x20 DUP2 ADD SWAP1 POP PUSH2 0x156B JUMP JUMPDEST PUSH1 0x0 DUP5 DUP5 ADD MSTORE POP POP POP POP JUMP JUMPDEST PUSH1 0x0 PUSH1 0x1F NOT PUSH1 0x1F DUP4 ADD AND SWAP1 POP SWAP2 SWAP1 POP JUMP JUMPDEST PUSH1 0x0 PUSH2 0x15AE DUP3 PUSH2 0x154C JUMP JUMPDEST PUSH2 0x15B8 DUP2 DUP6 PUSH2 0x1557 JUMP JUMPDEST SWAP4 POP PUSH2 0x15C8 DUP2 DUP6 PUSH1 0x20 DUP7 ADD PUSH2 0x1568 JUMP JUMPDEST PUSH2 0x15D1 DUP2 PUSH2 0x1592 JUMP JUMPDEST DUP5 ADD SWAP2 POP POP SWAP3 SWAP2 POP POP JUMP JUMPDEST PUSH32 0x4E487B7100000000000000000000000000000000000000000000000000000000 PUSH1 0x0 MSTORE PUSH1 0x21 PUSH1 0x4 MSTORE PUSH1 0x24 PUSH1 0x0 REVERT JUMPDEST PUSH1 0x4 DUP2 LT PUSH2 0x161C JUMPI PUSH2 0x161B PUSH2 0x15DC JUMP JUMPDEST JUMPDEST POP JUMP JUMPDEST PUSH1 0x0 DUP2 SWAP1 POP PUSH2 0x162D DUP3 PUSH2 0x160B JUMP JUMPDEST SWAP2 SWAP1 POP JUMP JUMPDEST PUSH1 0x0 PUSH2 0x163D DUP3 PUSH2 0x161F JUMP JUMPDEST SWAP1 POP SWAP2 SWAP1 POP JUMP JUMPDEST PUSH2 0x164D DUP2 PUSH2 0x1632 JUMP JUMPDEST DUP3 MSTORE POP POP JUMP JUMPDEST PUSH1 0x0 PUSH2 0x120 DUP4 ADD PUSH1 0x0 DUP4 ADD MLOAD PUSH2 0x166C PUSH1 0x0 DUP7 ADD DUP3 PUSH2 0x14FC JUMP JUMPDEST POP PUSH1 0x20 DUP4 ADD MLOAD PUSH2 0x167F PUSH1 0x20 DUP7 ADD DUP3 PUSH2 0x153D JUMP JUMPDEST POP PUSH1 0x40 DUP4 ADD MLOAD DUP5 DUP3 SUB PUSH1 0x40 DUP7 ADD MSTORE PUSH2 0x1697 DUP3 DUP3 PUSH2 0x15A3 JUMP JUMPDEST SWAP2 POP POP PUSH1 0x60 DUP4 ADD MLOAD DUP5 DUP3 SUB PUSH1 0x60 DUP7 ADD MSTORE PUSH2 0x16B1 DUP3 DUP3 PUSH2 0x15A3 JUMP JUMPDEST SWAP2 POP POP PUSH1 0x80 DUP4 ADD MLOAD DUP5 DUP3 SUB PUSH1 0x80 DUP7 ADD MSTORE PUSH2 0x16CB DUP3 DUP3 PUSH2 0x15A3 JUMP JUMPDEST SWAP2 POP POP PUSH1 0xA0 DUP4 ADD MLOAD PUSH2 0x16E0 PUSH1 0xA0 DUP7 ADD DUP3 PUSH2 0x14FC JUMP JUMPDEST POP PUSH1 0xC0 DUP4 ADD MLOAD DUP5 DUP3 SUB PUSH1 0xC0 DUP7 ADD MSTORE PUSH2 0x16F8 DUP3 DUP3 PUSH2 0x15A3 JUMP JUMPDEST SWAP2 POP POP PUSH1 0xE0 DUP4 ADD MLOAD PUSH2 0x170D PUSH1 0xE0 DUP7 ADD DUP3 PUSH2 0x1644 JUMP JUMPDEST POP PUSH2 0x100 DUP4 ADD MLOAD PUSH2 0x1722 PUSH2 0x100 DUP7 ADD DUP3 PUSH2 0x14FC JUMP JUMPDEST POP DUP1 SWAP2 POP POP SWAP3 SWAP2 POP POP JUMP JUMPDEST PUSH1 0x0 PUSH1 0x20 DUP3 ADD SWAP1 POP DUP2 DUP2 SUB PUSH1 0x0 DUP4 ADD MSTORE PUSH2 0x1747 DUP2 DUP5 PUSH2 0x1653 JUMP JUMPDEST SWAP1 POP SWAP3 SWAP2 POP POP JUMP JUMPDEST PUSH2 0x1758 DUP2 PUSH2 0x152B JUMP JUMPDEST DUP2 EQ PUSH2 0x1763 JUMPI PUSH1 0x0 DUP1 REVERT JUMPDEST POP JUMP JUMPDEST PUSH1 0x0 DUP2 CALLDATALOAD SWAP1 POP PUSH2 0x1775 DUP2 PUSH2 0x174F JUMP JUMPDEST SWAP3 SWAP2 POP POP JUMP JUMPDEST PUSH1 0x0 PUSH1 0x20 DUP3 DUP5 SUB SLT ISZERO PUSH2 0x1791 JUMPI PUSH2 0x1790 PUSH2 0x13D4 JUMP JUMPDEST JUMPDEST PUSH1 0x0 PUSH2 0x179F DUP5 DUP3 DUP6 ADD PUSH2 0x1766 JUMP JUMPDEST SWAP2 POP POP SWAP3 SWAP2 POP POP JUMP JUMPDEST PUSH1 0x0 DUP2 SWAP1 POP SWAP2 SWAP1 POP JUMP JUMPDEST PUSH2 0x17BB DUP2 PUSH2 0x17A8 JUMP JUMPDEST DUP2 EQ PUSH2 0x17C6 JUMPI PUSH1 0x0 DUP1 REVERT JUMPDEST POP JUMP JUMPDEST PUSH1 0x0 DUP2 CALLDATALOAD SWAP1 POP PUSH2 0x17D8 DUP2 PUSH2 0x17B2 JUMP JUMPDEST SWAP3 SWAP2 POP POP JUMP JUMPDEST PUSH1 0x0 PUSH1 0x20 DUP3 DUP5 SUB SLT ISZERO PUSH2 0x17F4 JUMPI PUSH2 0x17F3 PUSH2 0x13D4 JUMP JUMPDEST JUMPDEST PUSH1 0x0 PUSH2 0x1802 DUP5 DUP3 DUP6 ADD PUSH2 0x17C9 JUMP JUMPDEST SWAP2 POP POP SWAP3 SWAP2 POP POP JUMP JUMPDEST PUSH2 0x1814 DUP2 PUSH2 0x17A8 JUMP JUMPDEST DUP3 MSTORE POP POP JUMP JUMPDEST PUSH1 0x0 PUSH1 0x20 DUP3 ADD SWAP1 POP PUSH2 0x182F PUSH1 0x0 DUP4 ADD DUP5 PUSH2 0x180B JUMP JUMPDEST SWAP3 SWAP2 POP POP JUMP JUMPDEST PUSH2 0x183E DUP2 PUSH2 0x1499 JUMP JUMPDEST DUP3 MSTORE POP POP JUMP JUMPDEST PUSH2 0x184D DUP2 PUSH2 0x152B JUMP JUMPDEST DUP3 MSTORE POP POP JUMP JUMPDEST PUSH1 0x0 DUP3 DUP3 MSTORE PUSH1 0x20 DUP3 ADD SWAP1 POP SWAP3 SWAP2 POP POP JUMP JUMPDEST PUSH1 0x0 PUSH2 0x186F DUP3 PUSH2 0x154C JUMP JUMPDEST PUSH2 0x1879 DUP2 DUP6 PUSH2 0x1853 JUMP JUMPDEST SWAP4 POP PUSH2 0x1889 DUP2 DUP6 PUSH1 0x20 DUP7 ADD PUSH2 0x1568 JUMP JUMPDEST PUSH2 0x1892 DUP2 PUSH2 0x1592 JUMP JUMPDEST DUP5 ADD SWAP2 POP POP SWAP3 SWAP2 POP POP JUMP JUMPDEST PUSH2 0x18A6 DUP2 PUSH2 0x1632 JUMP JUMPDEST DUP3 MSTORE POP POP JUMP JUMPDEST PUSH1 0x0 PUSH2 0x120 DUP3 ADD SWAP1 POP PUSH2 0x18C2 PUSH1 0x0 DUP4 ADD DUP13 PUSH2 0x1835 JUMP JUMPDEST PUSH2 0x18CF PUSH1 0x20 DUP4 ADD DUP12 PUSH2 0x1844 JUMP JUMPDEST DUP2 DUP2 SUB PUSH1 0x40 DUP4 ADD MSTORE PUSH2 0x18E1 DUP2 DUP11 PUSH2 0x1864 JUMP JUMPDEST SWAP1 POP DUP2 DUP2 SUB PUSH1 0x60 DUP4 ADD MSTORE PUSH2 0x18F5 DUP2 DUP10 PUSH2 0x1864 JUMP JUMPDEST SWAP1 POP DUP2 DUP2 SUB PUSH1 0x80 DUP4 ADD MSTORE PUSH2 0x1909 DUP2 DUP9 PUSH2 0x1864 JUMP JUMPDEST SWAP1 POP PUSH2 0x1918 PUSH1 0xA0 DUP4 ADD DUP8 PUSH2 0x1835 JUMP JUMPDEST DUP2 DUP2 SUB PUSH1 0xC0 DUP4 ADD MSTORE PUSH2 0x192A DUP2 DUP7 PUSH2 0x1864 JUMP JUMPDEST SWAP1 POP PUSH2 0x1939 PUSH1 0xE0 DUP4 ADD DUP6 PUSH2 0x189D JUMP JUMPDEST PUSH2 0x1947 PUSH2 0x100 DUP4 ADD DUP5 PUSH2 0x1835 JUMP JUMPDEST SWAP11 SWAP10 POP POP POP POP POP POP POP POP POP POP JUMP JUMPDEST PUSH1 0x0 DUP1 PUSH1 0x40 DUP4 DUP6 SUB SLT ISZERO PUSH2 0x196C JUMPI PUSH2 0x196B PUSH2 0x13D4 JUMP JUMPDEST JUMPDEST PUSH1 0x0 PUSH2 0x197A DUP6 DUP3 DUP7 ADD PUSH2 0x17C9 JUMP JUMPDEST SWAP3 POP POP PUSH1 0x20 PUSH2 0x198B DUP6 DUP3 DUP7 ADD PUSH2 0x1766 JUMP JUMPDEST SWAP2 POP POP SWAP3 POP SWAP3 SWAP1 POP JUMP JUMPDEST PUSH1 0x4 DUP2 LT PUSH2 0x19A2 JUMPI PUSH1 0x0 DUP1 REVERT JUMPDEST POP JUMP JUMPDEST PUSH1 0x0 DUP2 CALLDATALOAD SWAP1 POP PUSH2 0x19B4 DUP2 PUSH2 0x1995 JUMP JUMPDEST SWAP3 SWAP2 POP POP JUMP JUMPDEST PUSH1 0x0 DUP1 PUSH1 0x40 DUP4 DUP6 SUB SLT ISZERO PUSH2 0x19D1 JUMPI PUSH2 0x19D0 PUSH2 0x13D4 JUMP JUMPDEST JUMPDEST PUSH1 0x0 PUSH2 0x19DF DUP6 DUP3 DUP7 ADD PUSH2 0x14BA JUMP JUMPDEST SWAP3 POP POP PUSH1 0x20 PUSH2 0x19F0 DUP6 DUP3 DUP7 ADD PUSH2 0x19A5 JUMP JUMPDEST SWAP2 POP POP SWAP3 POP SWAP3 SWAP1 POP JUMP JUMPDEST PUSH1 0x0 PUSH1 0x20 DUP3 ADD SWAP1 POP PUSH2 0x1A0F PUSH1 0x0 DUP4 ADD DUP5 PUSH2 0x1835 JUMP JUMPDEST SWAP3 SWAP2 POP POP JUMP JUMPDEST PUSH1 0x0 DUP1 REVERT JUMPDEST PUSH1 0x0 DUP1 REVERT JUMPDEST PUSH1 0x0 DUP1 REVERT JUMPDEST PUSH1 0x0 DUP1 DUP4 PUSH1 0x1F DUP5 ADD SLT PUSH2 0x1A3A JUMPI PUSH2 0x1A39 PUSH2 0x1A15 JUMP JUMPDEST JUMPDEST DUP3 CALLDATALOAD SWAP1 POP PUSH8 0xFFFFFFFFFFFFFFFF DUP2 GT ISZERO PUSH2 0x1A57 JUMPI PUSH2 0x1A56 PUSH2 0x1A1A JUMP JUMPDEST JUMPDEST PUSH1 0x20 DUP4 ADD SWAP2 POP DUP4 PUSH1 0x1 DUP3 MUL DUP4 ADD GT ISZERO PUSH2 0x1A73 JUMPI PUSH2 0x1A72 PUSH2 0x1A1F JUMP JUMPDEST JUMPDEST SWAP3 POP SWAP3 SWAP1 POP JUMP JUMPDEST PUSH1 0x0 DUP1 PUSH1 0x0 DUP1 PUSH1 0x0 DUP1 PUSH1 0x0 DUP1 PUSH1 0x0 DUP1 PUSH1 0xC0 DUP12 DUP14 SUB SLT ISZERO PUSH2 0x1A9D JUMPI PUSH2 0x1A9C PUSH2 0x13D4 JUMP JUMPDEST JUMPDEST PUSH1 0x0 PUSH2 0x1AAB DUP14 DUP3 DUP15 ADD PUSH2 0x14BA JUMP JUMPDEST SWAP11 POP POP PUSH1 0x20 DUP12 ADD CALLDATALOAD PUSH8 0xFFFFFFFFFFFFFFFF DUP2 GT ISZERO PUSH2 0x1ACC JUMPI PUSH2 0x1ACB PUSH2 0x13D9 JUMP JUMPDEST JUMPDEST PUSH2 0x1AD8 DUP14 DUP3 DUP15 ADD PUSH2 0x1A24 JUMP JUMPDEST SWAP10 POP SWAP10 POP POP PUSH1 0x40 DUP12 ADD CALLDATALOAD PUSH8 0xFFFFFFFFFFFFFFFF DUP2 GT ISZERO PUSH2 0x1AFB JUMPI PUSH2 0x1AFA PUSH2 0x13D9 JUMP JUMPDEST JUMPDEST PUSH2 0x1B07 DUP14 DUP3 DUP15 ADD PUSH2 0x1A24 JUMP JUMPDEST SWAP8 POP SWAP8 POP POP PUSH1 0x60 DUP12 ADD CALLDATALOAD PUSH8 0xFFFFFFFFFFFFFFFF DUP2 GT ISZERO PUSH2 0x1B2A JUMPI PUSH2 0x1B29 PUSH2 0x13D9 JUMP JUMPDEST JUMPDEST PUSH2 0x1B36 DUP14 DUP3 DUP15 ADD PUSH2 0x1A24 JUMP JUMPDEST SWAP6 POP SWAP6 POP POP PUSH1 0x80 PUSH2 0x1B49 DUP14 DUP3 DUP15 ADD PUSH2 0x14BA JUMP JUMPDEST SWAP4 POP POP PUSH1 0xA0 DUP12 ADD CALLDATALOAD PUSH8 0xFFFFFFFFFFFFFFFF DUP2 GT ISZERO PUSH2 0x1B6A JUMPI PUSH2 0x1B69 PUSH2 0x13D9 JUMP JUMPDEST JUMPDEST PUSH2 0x1B76 DUP14 DUP3 DUP15 ADD PUSH2 0x1A24 JUMP JUMPDEST SWAP3 POP SWAP3 POP POP SWAP3 SWAP6 SWAP9 SWAP12 SWAP2 SWAP5 SWAP8 SWAP11 POP SWAP3 SWAP6 SWAP9 POP JUMP JUMPDEST PUSH32 0x4E487B7100000000000000000000000000000000000000000000000000000000 PUSH1 0x0 MSTORE PUSH1 0x22 PUSH1 0x4 MSTORE PUSH1 0x24 PUSH1 0x0 REVERT JUMPDEST PUSH1 0x0 PUSH1 0x2 DUP3 DIV SWAP1 POP PUSH1 0x1 DUP3 AND DUP1 PUSH2 0x1BD1 JUMPI PUSH1 0x7F DUP3 AND SWAP2 POP JUMPDEST PUSH1 0x20 DUP3 LT DUP2 SUB PUSH2 0x1BE4 JUMPI PUSH2 0x1BE3 PUSH2 0x1B8A JUMP JUMPDEST JUMPDEST POP SWAP2 SWAP1 POP JUMP JUMPDEST PUSH1 0x0 PUSH1 0x20 DUP3 ADD SWAP1 POP PUSH2 0x1BFF PUSH1 0x0 DUP4 ADD DUP5 PUSH2 0x189D JUMP JUMPDEST SWAP3 SWAP2 POP POP JUMP JUMPDEST PUSH32 0x4E6F207075656465207365722030783000000000000000000000000000000000 PUSH1 0x0 DUP3 ADD MSTORE POP JUMP JUMPDEST PUSH1 0x0 PUSH2 0x1C3B PUSH1 0x10 DUP4 PUSH2 0x1853 JUMP JUMPDEST SWAP2 POP PUSH2 0x1C46 DUP3 PUSH2 0x1C05 JUMP JUMPDEST PUSH1 0x20 DUP3 ADD SWAP1 POP SWAP2 SWAP1 POP JUMP JUMPDEST PUSH1 0x0 PUSH1 0x20 DUP3 ADD SWAP1 POP DUP2 DUP2 SUB PUSH1 0x0 DUP4 ADD MSTORE PUSH2 0x1C6A DUP2 PUSH2 0x1C2E JUMP JUMPDEST SWAP1 POP SWAP2 SWAP1 POP JUMP JUMPDEST PUSH32 0x41646D696E20696E76616C69646F000000000000000000000000000000000000 PUSH1 0x0 DUP3 ADD MSTORE POP JUMP JUMPDEST PUSH1 0x0 PUSH2 0x1CA7 PUSH1 0xE DUP4 PUSH2 0x1853 JUMP JUMPDEST SWAP2 POP PUSH2 0x1CB2 DUP3 PUSH2 0x1C71 JUMP JUMPDEST PUSH1 0x20 DUP3 ADD SWAP1 POP SWAP2 SWAP1 POP JUMP JUMPDEST PUSH1 0x0 PUSH1 0x20 DUP3 ADD SWAP1 POP DUP2 DUP2 SUB PUSH1 0x0 DUP4 ADD MSTORE PUSH2 0x1CD6 DUP2 PUSH2 0x1C9A JUMP JUMPDEST SWAP1 POP SWAP2 SWAP1 POP JUMP JUMPDEST PUSH32 0x5175616E746974793E3000000000000000000000000000000000000000000000 PUSH1 0x0 DUP3 ADD MSTORE POP JUMP JUMPDEST PUSH1 0x0 PUSH2 0x1D13 PUSH1 0xA DUP4 PUSH2 0x1853 JUMP JUMPDEST SWAP2 POP PUSH2 0x1D1E DUP3 PUSH2 0x1CDD JUMP JUMPDEST PUSH1 0x20 DUP3 ADD SWAP1 POP SWAP2 SWAP1 POP JUMP JUMPDEST PUSH1 0x0 PUSH1 0x20 DUP3 ADD SWAP1 POP DUP2 DUP2 SUB PUSH1 0x0 DUP4 ADD MSTORE PUSH2 0x1D42 DUP2 PUSH2 0x1D06 JUMP JUMPDEST SWAP1 POP SWAP2 SWAP1 POP JUMP JUMPDEST PUSH32 0x4E487B7100000000000000000000000000000000000000000000000000000000 PUSH1 0x0 MSTORE PUSH1 0x11 PUSH1 0x4 MSTORE PUSH1 0x24 PUSH1 0x0 REVERT JUMPDEST PUSH1 0x0 PUSH2 0x1D83 DUP3 PUSH2 0x1499 JUMP JUMPDEST SWAP2 POP PUSH32 0xFFFFFFFFFFFFFFFFFFFFFFFFFFFFFFFFFFFFFFFFFFFFFFFFFFFFFFFFFFFFFFFF DUP3 SUB PUSH2 0x1DB5 JUMPI PUSH2 0x1DB4 PUSH2 0x1D49 JUMP JUMPDEST JUMPDEST PUSH1 0x1 DUP3 ADD SWAP1 POP SWAP2 SWAP1 POP JUMP JUMPDEST PUSH32 0x4E487B7100000000000000000000000000000000000000000000000000000000 PUSH1 0x0 MSTORE PUSH1 0x41 PUSH1 0x4 MSTORE PUSH1 0x24 PUSH1 0x0 REVERT JUMPDEST PUSH1 0x0 DUP2 SWAP1 POP DUP2 PUSH1 0x0 MSTORE PUSH1 0x20 PUSH1 0x0 KECCAK256 SWAP1 POP SWAP2 SWAP1 POP JUMP JUMPDEST PUSH1 0x0 PUSH1 0x20 PUSH1 0x1F DUP4 ADD DIV SWAP1 POP SWAP2 SWAP1 POP JUMP JUMPDEST PUSH1 0x0 DUP3 DUP3 SHL SWAP1 POP SWAP3 SWAP2 POP POP JUMP JUMPDEST PUSH1 0x0 PUSH1 0x8 DUP4 MUL PUSH2 0x1E51 PUSH32 0xFFFFFFFFFFFFFFFFFFFFFFFFFFFFFFFFFFFFFFFFFFFFFFFFFFFFFFFFFFFFFFFF DUP3 PUSH2 0x1E14 JUMP JUMPDEST PUSH2 0x1E5B DUP7 DUP4 PUSH2 0x1E14 JUMP JUMPDEST SWAP6 POP DUP1 NOT DUP5 AND SWAP4 POP DUP1 DUP7 AND DUP5 OR SWAP3 POP POP POP SWAP4 SWAP3 POP POP POP JUMP JUMPDEST PUSH1 0x0 DUP2 SWAP1 POP SWAP2 SWAP1 POP JUMP JUMPDEST PUSH1 0x0 PUSH2 0x1E98 PUSH2 0x1E93 PUSH2 0x1E8E DUP5 PUSH2 0x1499 JUMP JUMPDEST PUSH2 0x1E73 JUMP JUMPDEST PUSH2 0x1499 JUMP JUMPDEST SWAP1 POP SWAP2 SWAP1 POP JUMP JUMPDEST PUSH1 0x0 DUP2 SWAP1 POP SWAP2 SWAP1 POP JUMP JUMPDEST PUSH2 0x1EB2 DUP4 PUSH2 0x1E7D JUMP JUMPDEST PUSH2 0x1EC6 PUSH2 0x1EBE DUP3 PUSH2 0x1E9F JUMP JUMPDEST DUP5 DUP5 SLOAD PUSH2 0x1E21 JUMP JUMPDEST DUP3 SSTORE POP POP POP POP JUMP JUMPDEST PUSH1 0x0 SWAP1 JUMP JUMPDEST PUSH2 0x1EDB PUSH2 0x1ECE JUMP JUMPDEST PUSH2 0x1EE6 DUP2 DUP5 DUP5 PUSH2 0x1EA9 JUMP JUMPDEST POP POP POP JUMP JUMPDEST JUMPDEST DUP2 DUP2 LT ISZERO PUSH2 0x1F0A JUMPI PUSH2 0x1EFF PUSH1 0x0 DUP3 PUSH2 0x1ED3 JUMP JUMPDEST PUSH1 0x1 DUP2 ADD SWAP1 POP PUSH2 0x1EEC JUMP JUMPDEST POP POP JUMP JUMPDEST PUSH1 0x1F DUP3 GT ISZERO PUSH2 0x1F4F JUMPI PUSH2 0x1F20 DUP2 PUSH2 0x1DEF JUMP JUMPDEST PUSH2 0x1F29 DUP5 PUSH2 0x1E04 JUMP JUMPDEST DUP2 ADD PUSH1 0x20 DUP6 LT ISZERO PUSH2 0x1F38 JUMPI DUP2 SWAP1 POP JUMPDEST PUSH2 0x1F4C PUSH2 0x1F44 DUP6 PUSH2 0x1E04 JUMP JUMPDEST DUP4 ADD DUP3 PUSH2 0x1EEB JUMP JUMPDEST POP POP JUMPDEST POP POP POP JUMP JUMPDEST PUSH1 0x0 DUP3 DUP3 SHR SWAP1 POP SWAP3 SWAP2 POP POP JUMP JUMPDEST PUSH1 0x0 PUSH2 0x1F72 PUSH1 0x0 NOT DUP5 PUSH1 0x8 MUL PUSH2 0x1F54 JUMP JUMPDEST NOT DUP1 DUP4 AND SWAP2 POP POP SWAP3 SWAP2 POP POP JUMP JUMPDEST PUSH1 0x0 PUSH2 0x1F8B DUP4 DUP4 PUSH2 0x1F61 JUMP JUMPDEST SWAP2 POP DUP3 PUSH1 0x2 MUL DUP3 OR SWAP1 POP SWAP3 SWAP2 POP POP JUMP JUMPDEST PUSH2 0x1FA4 DUP3 PUSH2 0x154C JUMP JUMPDEST PUSH8 0xFFFFFFFFFFFFFFFF DUP2 GT ISZERO PUSH2 0x1FBD JUMPI PUSH2 0x1FBC PUSH2 0x1DC0 JUMP JUMPDEST JUMPDEST PUSH2 0x1FC7 DUP3 SLOAD PUSH2 0x1BB9 JUMP JUMPDEST PUSH2 0x1FD2 DUP3 DUP3 DUP6 PUSH2 0x1F0E JUMP JUMPDEST PUSH1 0x0 PUSH1 0x20 SWAP1 POP PUSH1 0x1F DUP4 GT PUSH1 0x1 DUP2 EQ PUSH2 0x2005 JUMPI PUSH1 0x0 DUP5 ISZERO PUSH2 0x1FF3 JUMPI DUP3 DUP8 ADD MLOAD SWAP1 POP JUMPDEST PUSH2 0x1FFD DUP6 DUP3 PUSH2 0x1F7F JUMP JUMPDEST DUP7 SSTORE POP PUSH2 0x2065 JUMP JUMPDEST PUSH1 0x1F NOT DUP5 AND PUSH2 0x2013 DUP7 PUSH2 0x1DEF JUMP JUMPDEST PUSH1 0x0 JUMPDEST DUP3 DUP2 LT ISZERO PUSH2 0x203B JUMPI DUP5 DUP10 ADD MLOAD DUP3 SSTORE PUSH1 0x1 DUP3 ADD SWAP2 POP PUSH1 0x20 DUP6 ADD SWAP5 POP PUSH1 0x20 DUP2 ADD SWAP1 POP PUSH2 0x2016 JUMP JUMPDEST DUP7 DUP4 LT ISZERO PUSH2 0x2058 JUMPI DUP5 DUP10 ADD MLOAD PUSH2 0x2054 PUSH1 0x1F DUP10 AND DUP3 PUSH2 0x1F61 JUMP JUMPDEST DUP4 SSTORE POP JUMPDEST PUSH1 0x1 PUSH1 0x2 DUP9 MUL ADD DUP9 SSTORE POP POP POP JUMPDEST POP POP POP POP POP POP JUMP JUMPDEST DUP3 DUP2 DUP4 CALLDATACOPY PUSH1 0x0 DUP4 DUP4 ADD MSTORE POP POP POP JUMP JUMPDEST PUSH1 0x0 PUSH2 0x2088 DUP4 DUP6 PUSH2 0x1853 JUMP JUMPDEST SWAP4 POP PUSH2 0x2095 DUP4 DUP6 DUP5 PUSH2 0x206D JUMP JUMPDEST PUSH2 0x209E DUP4 PUSH2 0x1592 JUMP JUMPDEST DUP5 ADD SWAP1 POP SWAP4 SWAP3 POP POP POP JUMP JUMPDEST PUSH1 0x0 PUSH1 0xC0 DUP3 ADD SWAP1 POP PUSH2 0x20BE PUSH1 0x0 DUP4 ADD DUP14 PUSH2 0x1835 JUMP JUMPDEST DUP2 DUP2 SUB PUSH1 0x20 DUP4 ADD MSTORE PUSH2 0x20D1 DUP2 DUP12 DUP14 PUSH2 0x207C JUMP JUMPDEST SWAP1 POP DUP2 DUP2 SUB PUSH1 0x40 DUP4 ADD MSTORE PUSH2 0x20E6 DUP2 DUP10 DUP12 PUSH2 0x207C JUMP JUMPDEST SWAP1 POP DUP2 DUP2 SUB PUSH1 0x60 DUP4 ADD MSTORE PUSH2 0x20FB DUP2 DUP8 DUP10 PUSH2 0x207C JUMP JUMPDEST SWAP1 POP PUSH2 0x210A PUSH1 0x80 DUP4 ADD DUP7 PUSH2 0x1835 JUMP JUMPDEST DUP2 DUP2 SUB PUSH1 0xA0 DUP4 ADD MSTORE PUSH2 0x211D DUP2 DUP5 DUP7 PUSH2 0x207C JUMP JUMPDEST SWAP1 POP SWAP12 SWAP11 POP POP POP POP POP POP POP POP POP POP POP JUMP JUMPDEST PUSH1 0x0 PUSH1 0x40 DUP3 ADD SWAP1 POP PUSH2 0x2143 PUSH1 0x0 DUP4 ADD DUP6 PUSH2 0x1844 JUMP JUMPDEST PUSH2 0x2150 PUSH1 0x20 DUP4 ADD DUP5 PUSH2 0x180B JUMP JUMPDEST SWAP4 SWAP3 POP POP POP JUMP INVALID LOG2 PUSH5 0x6970667358 0x22 SLT KECCAK256 MOD 0xB8 0x26 DUP7 CALLER DUP5 0x4A DUP10 JUMP 0x2E SWAP15 0xE9 0x2C 0xE1 CODESIZE PUSH24 0xAD55F49B4F31741FA549AE8960D943064736F6C63430008 EQ STOP CALLER "},"methodIdentifiers":{"DEFAULT_ADMIN_ROLE()":"a217fddf","DISTRIBUTOR_ROLE()":"f0bd87cc","createShipment(uint256,string,string,string,uint256,string)":"f6b4fcfd","getRoleAdmin(bytes32)":"248a9ca3","getShipment(uint256)":"092b3740","grantDistributor(address)":"63ca21d7","grantRole(bytes32,address)":"2f2ff15d","hasRole(bytes32,address)":"91d14854","nextShipmentId()":"b9a3a68c","renounceRole(bytes32,address)":"36568abe","revokeDistributor(address)":"120b93d3","revokeRole(bytes32,address)":"d547741f","shipments(uint256)":"2ac08a93","supportsInterface(bytes4)":"01ffc9a7","transferAdmin(address)":"75829def","updateStatus(uint256,uint8)":"3a1b3d31"}}}}}