{
  "_format": "hh-sol-artifact-1",
  "contractName": "UserRegistrationContract",
  "sourceName": "contracts/UserRegistrationContract.sol",
  "abi": [
    {
      "inputs": [],
      "stateMutability": "nonpayable",
      "type": "constructor"
    },
    {
      "anonymous": false,
      "inputs": [
        {
          "indexed": true,
          "internalType": "address",
          "name": "userAddress",
          "type": "address"
        }
      ],
      "name": "UserDeactivated",
      "type": "event"
    },
    {
      "anonymous": false,
      "inputs": [
        {
          "indexed": true,
          "internalType": "address",
          "name": "userAddress",
          "type": "address"
        },
        {
          "indexed": false,
          "internalType": "string",
          "name": "name",
          "type": "string"
        },
        {
          "indexed": false,
          "internalType": "string",
          "name": "email",
          "type": "string"
        },
        {
          "indexed": false,
          "internalType": "uint256",
          "name": "userId",
          "type": "uint256"
        }
      ],
      "name": "UserRegistered",
      "type": "event"
    },
    {
      "anonymous": false,
      "inputs": [
        {
          "indexed": true,
          "internalType": "address",
          "name": "userAddress",
          "type": "address"
        },
        {
          "indexed": false,
          "internalType": "string",
          "name": "name",
          "type": "string"
        },
        {
          "indexed": false,
          "internalType": "string",
          "name": "email",
          "type": "string"
        }
      ],
      "name": "UserUpdated",
      "type": "event"
    },
    {
      "inputs": [
        {
          "internalType": "address",
          "name": "_userAddress",
          "type": "address"
        }
      ],
      "name": "deactivateUser",
      "outputs": [],
      "stateMutability": "nonpayable",
      "type": "function"
    },
    {
      "inputs": [
        {
          "internalType": "address",
          "name": "who",
          "type": "address"
        }
      ],
      "name": "getUserId",
      "outputs": [
        {
          "internalType": "uint256",
          "name": "",
          "type": "uint256"
        }
      ],
      "stateMutability": "view",
      "type": "function"
    },
    {
      "inputs": [
        {
          "internalType": "address",
          "name": "_userAddress",
          "type": "address"
        }
      ],
      "name": "isUserRegistered",
      "outputs": [
        {
          "internalType": "bool",
          "name": "",
          "type": "bool"
        }
      ],
      "stateMutability": "view",
      "type": "function"
    },
    {
      "inputs": [],
      "name": "nextUserId",
      "outputs": [
        {
          "internalType": "uint256",
          "name": "",
          "type": "uint256"
        }
      ],
      "stateMutability": "view",
      "type": "function"
    },
    {
      "inputs": [],
      "name": "owner",
      "outputs": [
        {
          "internalType": "address",
          "name": "",
          "type": "address"
        }
      ],
      "stateMutability": "view",
      "type": "function"
    },
    {
      "inputs": [
        {
          "internalType": "address",
          "name": "_userAddress",
          "type": "address"
        },
        {
          "internalType": "string",
          "name": "_name",
          "type": "string"
        },
        {
          "internalType": "string",
          "name": "_email",
          "type": "string"
        }
      ],
      "name": "registerUser",
      "outputs": [],
      "stateMutability": "nonpayable",
      "type": "function"
    },
    {
      "inputs": [
        {
          "internalType": "string",
          "name": "_name",
          "type": "string"
        },
        {
          "internalType": "string",
          "name": "_email",
          "type": "string"
        }
      ],
      "name": "updateUser",
      "outputs": [],
      "stateMutability": "nonpayable",
      "type": "function"
    },
    {
      "inputs": [
        {
          "internalType": "address",
          "name": "",
          "type": "address"
        }
      ],
      "name": "users",
      "outputs": [
        {
          "internalType": "string",
          "name": "name",
          "type": "string"
        },
        {
          "internalType": "string",
          "name": "email",
          "type": "string"
        },
        {
          "internalType": "bool",
          "name": "isActive",
          "type": "bool"
        },
        {
          "internalType": "uint256",
          "name": "userId",
          "type": "uint256"
        }
      ],
      "stateMutability": "view",
      "type": "function"
    }
  ],
  "bytecode": "0x6080604052600160025534801561001557600080fd5b5033600160006101000a81548173ffffffffffffffffffffffffffffffffffffffff021916908373ffffffffffffffffffffffffffffffffffffffff160217905550611410806100666000396000f3fe608060405234801561001057600080fd5b50600436106100885760003560e01c8063a1e6a2551161005b578063a1e6a25514610127578063a87430ba14610145578063db0c87c914610178578063dd4a24251461019457610088565b8063163f75221461008d5780631a47767b146100bd5780632b956ff7146100d95780638da5cb5b14610109575b600080fd5b6100a760048036038101906100a29190610a57565b6101b0565b6040516100b49190610a9f565b60405180910390f35b6100d760048036038101906100d29190610a57565b610208565b005b6100f360048036038101906100ee9190610a57565b6103c6565b6040516101009190610ad3565b60405180910390f35b61011161049f565b60405161011e9190610afd565b60405180910390f35b61012f6104c5565b60405161013c9190610ad3565b60405180910390f35b61015f600480360381019061015a9190610a57565b6104cb565b60405161016f9493929190610ba8565b60405180910390f35b610192600480360381019061018d9190610d30565b610618565b005b6101ae60048036038101906101a99190610dbb565b610865565b005b60008060008373ffffffffffffffffffffffffffffffffffffffff1673ffffffffffffffffffffffffffffffffffffffff16815260200190815260200160002060020160009054906101000a900460ff169050919050565b600160009054906101000a900473ffffffffffffffffffffffffffffffffffffffff1673ffffffffffffffffffffffffffffffffffffffff163373ffffffffffffffffffffffffffffffffffffffff1614610298576040517f08c379a000000000000000000000000000000000000000000000000000000000815260040161028f90610ea5565b60405180910390fd5b6000808273ffffffffffffffffffffffffffffffffffffffff1673ffffffffffffffffffffffffffffffffffffffff16815260200190815260200160002060020160009054906101000a900460ff16610326576040517f08c379a000000000000000000000000000000000000000000000000000000000815260040161031d90610f11565b60405180910390fd5b60008060008373ffffffffffffffffffffffffffffffffffffffff1673ffffffffffffffffffffffffffffffffffffffff16815260200190815260200160002060020160006101000a81548160ff0219169083151502179055508073ffffffffffffffffffffffffffffffffffffffff167f5554feec4e87bc4eba14bd62f71df68156f97d26128616fbc27d28e33b35a6b460405160405180910390a250565b60008060008373ffffffffffffffffffffffffffffffffffffffff1673ffffffffffffffffffffffffffffffffffffffff16815260200190815260200160002060020160009054906101000a900460ff16610456576040517f08c379a000000000000000000000000000000000000000000000000000000000815260040161044d90610f7d565b60405180910390fd5b6000808373ffffffffffffffffffffffffffffffffffffffff1673ffffffffffffffffffffffffffffffffffffffff168152602001908152602001600020600301549050919050565b600160009054906101000a900473ffffffffffffffffffffffffffffffffffffffff1681565b60025481565b60006020528060005260406000206000915090508060000180546104ee90610fcc565b80601f016020809104026020016040519081016040528092919081815260200182805461051a90610fcc565b80156105675780601f1061053c57610100808354040283529160200191610567565b820191906000526020600020905b81548152906001019060200180831161054a57829003601f168201915b50505050509080600101805461057c90610fcc565b80601f01602080910402602001604051908101604052809291908181526020018280546105a890610fcc565b80156105f55780601f106105ca576101008083540402835291602001916105f5565b820191906000526020600020905b8154815290600101906020018083116105d857829003601f168201915b5050505050908060020160009054906101000a900460ff16908060030154905084565b600160009054906101000a900473ffffffffffffffffffffffffffffffffffffffff1673ffffffffffffffffffffffffffffffffffffffff163373ffffffffffffffffffffffffffffffffffffffff16146106a8576040517f08c379a000000000000000000000000000000000000000000000000000000000815260040161069f90610ea5565b60405180910390fd5b6000808473ffffffffffffffffffffffffffffffffffffffff1673ffffffffffffffffffffffffffffffffffffffff16815260200190815260200160002060020160009054906101000a900460ff1615610737576040517f08c379a000000000000000000000000000000000000000000000000000000000815260040161072e90611049565b60405180910390fd5b60006002600081548092919061074c90611098565b9190505590506040518060800160405280848152602001838152602001600115158152602001828152506000808673ffffffffffffffffffffffffffffffffffffffff1673ffffffffffffffffffffffffffffffffffffffff16815260200190815260200160002060008201518160000190816107c9919061128c565b5060208201518160010190816107df919061128c565b5060408201518160020160006101000a81548160ff021916908315150217905550606082015181600301559050508373ffffffffffffffffffffffffffffffffffffffff167fb43e07573ffd613ee4cb14f22ebd42b902fb524682771d8e82932bd48bcda2478484846040516108579392919061135e565b60405180910390a250505050565b6000803373ffffffffffffffffffffffffffffffffffffffff1673ffffffffffffffffffffffffffffffffffffffff16815260200190815260200160002060020160009054906101000a900460ff166108f3576040517f08c379a00000000000000000000000000000000000000000000000000000000081526004016108ea90610f11565b60405180910390fd5b816000803373ffffffffffffffffffffffffffffffffffffffff1673ffffffffffffffffffffffffffffffffffffffff1681526020019081526020016000206000019081610941919061128c565b50806000803373ffffffffffffffffffffffffffffffffffffffff1673ffffffffffffffffffffffffffffffffffffffff1681526020019081526020016000206001019081610990919061128c565b503373ffffffffffffffffffffffffffffffffffffffff167fe5d18d6612696bff7df1db8015eac613241613297fa2ba2783993e4fd0e76f3d83836040516109d99291906113a3565b60405180910390a25050565b6000604051905090565b600080fd5b600080fd5b600073ffffffffffffffffffffffffffffffffffffffff82169050919050565b6000610a24826109f9565b9050919050565b610a3481610a19565b8114610a3f57600080fd5b50565b600081359050610a5181610a2b565b92915050565b600060208284031215610a6d57610a6c6109ef565b5b6000610a7b84828501610a42565b91505092915050565b60008115159050919050565b610a9981610a84565b82525050565b6000602082019050610ab46000830184610a90565b92915050565b6000819050919050565b610acd81610aba565b82525050565b6000602082019050610ae86000830184610ac4565b92915050565b610af781610a19565b82525050565b6000602082019050610b126000830184610aee565b92915050565b600081519050919050565b600082825260208201905092915050565b60005b83811015610b52578082015181840152602081019050610b37565b60008484015250505050565b6000601f19601f8301169050919050565b6000610b7a82610b18565b610b848185610b23565b9350610b94818560208601610b34565b610b9d81610b5e565b840191505092915050565b60006080820190508181036000830152610bc28187610b6f565b90508181036020830152610bd68186610b6f565b9050610be56040830185610a90565b610bf26060830184610ac4565b95945050505050565b600080fd5b600080fd5b7f4e487b7100000000000000000000000000000000000000000000000000000000600052604160045260246000fd5b610c3d82610b5e565b810181811067ffffffffffffffff82111715610c5c57610c5b610c05565b5b80604052505050565b6000610c6f6109e5565b9050610c7b8282610c34565b919050565b600067ffffffffffffffff821115610c9b57610c9a610c05565b5b610ca482610b5e565b9050602081019050919050565b82818337600083830152505050565b6000610cd3610cce84610c80565b610c65565b905082815260208101848484011115610cef57610cee610c00565b5b610cfa848285610cb1565b509392505050565b600082601f830112610d1757610d16610bfb565b5b8135610d27848260208601610cc0565b91505092915050565b600080600060608486031215610d4957610d486109ef565b5b6000610d5786828701610a42565b935050602084013567ffffffffffffffff811115610d7857610d776109f4565b5b610d8486828701610d02565b925050604084013567ffffffffffffffff811115610da557610da46109f4565b5b610db186828701610d02565b9150509250925092565b60008060408385031215610dd257610dd16109ef565b5b600083013567ffffffffffffffff811115610df057610def6109f4565b5b610dfc85828601610d02565b925050602083013567ffffffffffffffff811115610e1d57610e1c6109f4565b5b610e2985828601610d02565b9150509250929050565b7f4f6e6c79206f776e65722063616e20706572666f726d2074686973206163746960008201527f6f6e000000000000000000000000000000000000000000000000000000000000602082015250565b6000610e8f602283610b23565b9150610e9a82610e33565b604082019050919050565b60006020820190508181036000830152610ebe81610e82565b9050919050565b7f55736572206973206e6f74206163746976650000000000000000000000000000600082015250565b6000610efb601283610b23565b9150610f0682610ec5565b602082019050919050565b60006020820190508181036000830152610f2a81610eee565b9050919050565b7f55736572206e6f74207265676973746572656400000000000000000000000000600082015250565b6000610f67601383610b23565b9150610f7282610f31565b602082019050919050565b60006020820190508181036000830152610f9681610f5a565b9050919050565b7f4e487b7100000000000000000000000000000000000000000000000000000000600052602260045260246000fd5b60006002820490506001821680610fe457607f821691505b602082108103610ff757610ff6610f9d565b5b50919050565b7f5573657220616c72656164792072656769737465726564000000000000000000600082015250565b6000611033601783610b23565b915061103e82610ffd565b602082019050919050565b6000602082019050818103600083015261106281611026565b9050919050565b7f4e487b7100000000000000000000000000000000000000000000000000000000600052601160045260246000fd5b60006110a382610aba565b91507fffffffffffffffffffffffffffffffffffffffffffffffffffffffffffffffff82036110d5576110d4611069565b5b600182019050919050565b60008190508160005260206000209050919050565b60006020601f8301049050919050565b600082821b905092915050565b6000600883026111427fffffffffffffffffffffffffffffffffffffffffffffffffffffffffffffffff82611105565b61114c8683611105565b95508019841693508086168417925050509392505050565b6000819050919050565b600061118961118461117f84610aba565b611164565b610aba565b9050919050565b6000819050919050565b6111a38361116e565b6111b76111af82611190565b848454611112565b825550505050565b600090565b6111cc6111bf565b6111d781848461119a565b505050565b5b818110156111fb576111f06000826111c4565b6001810190506111dd565b5050565b601f82111561124057611211816110e0565b61121a846110f5565b81016020851015611229578190505b61123d611235856110f5565b8301826111dc565b50505b505050565b600082821c905092915050565b600061126360001984600802611245565b1980831691505092915050565b600061127c8383611252565b9150826002028217905092915050565b61129582610b18565b67ffffffffffffffff8111156112ae576112ad610c05565b5b6112b88254610fcc565b6112c38282856111ff565b600060209050601f8311600181146112f657600084156112e4578287015190505b6112ee8582611270565b865550611356565b601f198416611304866110e0565b60005b8281101561132c57848901518255600182019150602085019450602081019050611307565b868310156113495784890151611345601f891682611252565b8355505b6001600288020188555050505b505050505050565b600060608201905081810360008301526113788186610b6f565b9050818103602083015261138c8185610b6f565b905061139b6040830184610ac4565b949350505050565b600060408201905081810360008301526113bd8185610b6f565b905081810360208301526113d18184610b6f565b9050939250505056fea264697066735822122037c0fe5b7380cbf12ecf713157a278f17389a47dbc68590da5a71671409ffebd64736f6c63430008140033",
  "linkReferences": {},
  "deployedLinkReferences": {}
}