{
  "_format": "hh-sol-artifact-1",
  "contractName": "SalesContract",
  "sourceName": "contracts/SalesContract.sol",
  "abi": [
    {
      "inputs": [
        {
          "internalType": "address",
          "name": "_userContract",
          "type": "address"
        },
        {
          "internalType": "address",
          "name": "_productContract",
          "type": "address"
        }
      ],
      "stateMutability": "nonpayable",
      "type": "constructor"
    },
    {
      "anonymous": false,
      "inputs": [
        {
          "indexed": true,
          "internalType": "uint256",
          "name": "productId",
          "type": "uint256"
        },
        {
          "indexed": true,
          "internalType": "uint256",
          "name": "fromCustody",
          "type": "uint256"
        },
        {
          "indexed": true,
          "internalType": "uint256",
          "name": "toCustody",
          "type": "uint256"
        },
        {
          "indexed": false,
          "internalType": "uint256",
          "name": "quantity",
          "type": "uint256"
        },
        {
          "indexed": false,
          "internalType": "uint256",
          "name": "price",
          "type": "uint256"
        },
        {
          "indexed": false,
          "internalType": "uint256",
          "name": "timestamp",
          "type": "uint256"
        }
      ],
      "name": "ProductSold",
      "type": "event"
    },
    {
      "inputs": [
        {
          "internalType": "uint256",
          "name": "productId",
          "type": "uint256"
        },
        {
          "internalType": "uint256",
          "name": "index",
          "type": "uint256"
        }
      ],
      "name": "getSale",
      "outputs": [
        {
          "components": [
            {
              "internalType": "uint256",
              "name": "productId",
              "type": "uint256"
            },
            {
              "internalType": "uint256",
              "name": "fromCustody",
              "type": "uint256"
            },
            {
              "internalType": "uint256",
              "name": "toCustody",
              "type": "uint256"
            },
            {
              "internalType": "uint256",
              "name": "quantity",
              "type": "uint256"
            },
            {
              "internalType": "uint256",
              "name": "price",
              "type": "uint256"
            },
            {
              "internalType": "uint256",
              "name": "timestamp",
              "type": "uint256"
            }
          ],
          "internalType": "struct SalesContract.Sale",
          "name": "",
          "type": "tuple"
        }
      ],
      "stateMutability": "view",
      "type": "function"
    },
    {
      "inputs": [
        {
          "internalType": "uint256",
          "name": "productId",
          "type": "uint256"
        }
      ],
      "name": "getSalesCount",
      "outputs": [
        {
          "internalType": "uint256",
          "name": "",
          "type": "uint256"
        }
      ],
      "stateMutability": "view",
      "type": "function"
    },
    {
      "inputs": [
        {
          "internalType": "address",
          "name": "who",
          "type": "address"
        }
      ],
      "name": "getUserId",
      "outputs": [
        {
          "internalType": "uint256",
          "name": "",
          "type": "uint256"
        }
      ],
      "stateMutability": "view",
      "type": "function"
    },
    {
      "inputs": [],
      "name": "productContract",
      "outputs": [
        {
          "internalType": "contract ProductRegistrationContract",
          "name": "",
          "type": "address"
        }
      ],
      "stateMutability": "view",
      "type": "function"
    },
    {
      "inputs": [
        {
          "internalType": "uint256",
          "name": "",
          "type": "uint256"
        },
        {
          "internalType": "uint256",
          "name": "",
          "type": "uint256"
        }
      ],
      "name": "salesHistory",
      "outputs": [
        {
          "internalType": "uint256",
          "name": "productId",
          "type": "uint256"
        },
        {
          "internalType": "uint256",
          "name": "fromCustody",
          "type": "uint256"
        },
        {
          "internalType": "uint256",
          "name": "toCustody",
          "type": "uint256"
        },
        {
          "internalType": "uint256",
          "name": "quantity",
          "type": "uint256"
        },
        {
          "internalType": "uint256",
          "name": "price",
          "type": "uint256"
        },
        {
          "internalType": "uint256",
          "name": "timestamp",
          "type": "uint256"
        }
      ],
      "stateMutability": "view",
      "type": "function"
    },
    {
      "inputs": [
        {
          "internalType": "uint256",
          "name": "productId",
          "type": "uint256"
        },
        {
          "internalType": "uint256",
          "name": "newCustodyId",
          "type": "uint256"
        },
        {
          "internalType": "uint256",
          "name": "quantity",
          "type": "uint256"
        },
        {
          "internalType": "uint256",
          "name": "price",
          "type": "uint256"
        }
      ],
      "name": "sellProduct",
      "outputs": [],
      "stateMutability": "nonpayable",
      "type": "function"
    },
    {
      "inputs": [],
      "name": "userContract",
      "outputs": [
        {
          "internalType": "contract UserRegistrationContract",
          "name": "",
          "type": "address"
        }
      ],
      "stateMutability": "view",
      "type": "function"
    }
  ],
  "bytecode": "0x608060405234801561001057600080fd5b50604051610e7d380380610e7d8339818101604052810190610032919061011d565b816000806101000a81548173ffffffffffffffffffffffffffffffffffffffff021916908373ffffffffffffffffffffffffffffffffffffffff16021790555080600160006101000a81548173ffffffffffffffffffffffffffffffffffffffff021916908373ffffffffffffffffffffffffffffffffffffffff160217905550505061015d565b600080fd5b600073ffffffffffffffffffffffffffffffffffffffff82169050919050565b60006100ea826100bf565b9050919050565b6100fa816100df565b811461010557600080fd5b50565b600081519050610117816100f1565b92915050565b60008060408385031215610134576101336100ba565b5b600061014285828601610108565b925050602061015385828601610108565b9150509250929050565b610d118061016c6000396000f3fe608060405234801561001057600080fd5b506004361061007d5760003560e01c806354a3f2b11161005b57806354a3f2b1146100ee57806398d74c531461011e578063c090840c14610153578063c75c59701461016f5761007d565b80632a28d4df146100825780632b956ff7146100a05780635000596b146100d0575b600080fd5b61008a61019f565b604051610097919061066f565b60405180910390f35b6100ba60048036038101906100b591906106dc565b6101c5565b6040516100c79190610722565b60405180910390f35b6100d8610269565b6040516100e5919061075e565b60405180910390f35b610108600480360381019061010391906107a5565b61028d565b6040516101159190610722565b60405180910390f35b610138600480360381019061013391906107d2565b6102ad565b60405161014a96959493929190610812565b60405180910390f35b61016d60048036038101906101689190610873565b610306565b005b610189600480360381019061018491906107d2565b610530565b6040516101969190610964565b60405180910390f35b600160009054906101000a900473ffffffffffffffffffffffffffffffffffffffff1681565b60008060009054906101000a900473ffffffffffffffffffffffffffffffffffffffff1673ffffffffffffffffffffffffffffffffffffffff16632b956ff7836040518263ffffffff1660e01b8152600401610221919061098e565b602060405180830381865afa15801561023e573d6000803e3d6000fd5b505050506040513d601f19601f8201168201806040525081019061026291906109be565b9050919050565b60008054906101000a900473ffffffffffffffffffffffffffffffffffffffff1681565b600060026000838152602001908152602001600020805490509050919050565b600260205281600052604060002081815481106102c957600080fd5b9060005260206000209060060201600091509150508060000154908060010154908060020154908060030154908060040154908060050154905086565b6000600160009054906101000a900473ffffffffffffffffffffffffffffffffffffffff1673ffffffffffffffffffffffffffffffffffffffff1663b9db15b4866040518263ffffffff1660e01b81526004016103639190610722565b600060405180830381865afa158015610380573d6000803e3d6000fd5b505050506040513d6000823e3d601f19601f820116820180604052508101906103a99190610b99565b945050505050600160009054906101000a900473ffffffffffffffffffffffffffffffffffffffff1673ffffffffffffffffffffffffffffffffffffffff1663fd33594286866040518363ffffffff1660e01b815260040161040c929190610c4c565b600060405180830381600087803b15801561042657600080fd5b505af115801561043a573d6000803e3d6000fd5b5050505060006040518060c0016040528087815260200183815260200186815260200185815260200184815260200142815250905060026000878152602001908152602001600020819080600181540180825580915050600190039060005260206000209060060201600090919091909150600082015181600001556020820151816001015560408201518160020155606082015181600301556080820151816004015560a0820151816005015550508482877f904aea80fcf0311ef5a875e964bd6c2064ec422f7c4b759a87f80284edd6194787874260405161052093929190610c75565b60405180910390a4505050505050565b6105386105ba565b60026000848152602001908152602001600020828154811061055d5761055c610cac565b5b90600052602060002090600602016040518060c00160405290816000820154815260200160018201548152602001600282015481526020016003820154815260200160048201548152602001600582015481525050905092915050565b6040518060c001604052806000815260200160008152602001600081526020016000815260200160008152602001600081525090565b600073ffffffffffffffffffffffffffffffffffffffff82169050919050565b6000819050919050565b600061063561063061062b846105f0565b610610565b6105f0565b9050919050565b60006106478261061a565b9050919050565b60006106598261063c565b9050919050565b6106698161064e565b82525050565b60006020820190506106846000830184610660565b92915050565b6000604051905090565b600080fd5b600080fd5b60006106a9826105f0565b9050919050565b6106b98161069e565b81146106c457600080fd5b50565b6000813590506106d6816106b0565b92915050565b6000602082840312156106f2576106f1610694565b5b6000610700848285016106c7565b91505092915050565b6000819050919050565b61071c81610709565b82525050565b60006020820190506107376000830184610713565b92915050565b60006107488261063c565b9050919050565b6107588161073d565b82525050565b6000602082019050610773600083018461074f565b92915050565b61078281610709565b811461078d57600080fd5b50565b60008135905061079f81610779565b92915050565b6000602082840312156107bb576107ba610694565b5b60006107c984828501610790565b91505092915050565b600080604083850312156107e9576107e8610694565b5b60006107f785828601610790565b925050602061080885828601610790565b9150509250929050565b600060c0820190506108276000830189610713565b6108346020830188610713565b6108416040830187610713565b61084e6060830186610713565b61085b6080830185610713565b61086860a0830184610713565b979650505050505050565b6000806000806080858703121561088d5761088c610694565b5b600061089b87828801610790565b94505060206108ac87828801610790565b93505060406108bd87828801610790565b92505060606108ce87828801610790565b91505092959194509250565b6108e381610709565b82525050565b60c0820160008201516108ff60008501826108da565b50602082015161091260208501826108da565b50604082015161092560408501826108da565b50606082015161093860608501826108da565b50608082015161094b60808501826108da565b5060a082015161095e60a08501826108da565b50505050565b600060c08201905061097960008301846108e9565b92915050565b6109888161069e565b82525050565b60006020820190506109a3600083018461097f565b92915050565b6000815190506109b881610779565b92915050565b6000602082840312156109d4576109d3610694565b5b60006109e2848285016109a9565b91505092915050565b600080fd5b600080fd5b6000601f19601f8301169050919050565b7f4e487b7100000000000000000000000000000000000000000000000000000000600052604160045260246000fd5b610a3e826109f5565b810181811067ffffffffffffffff82111715610a5d57610a5c610a06565b5b80604052505050565b6000610a7061068a565b9050610a7c8282610a35565b919050565b600067ffffffffffffffff821115610a9c57610a9b610a06565b5b610aa5826109f5565b9050602081019050919050565b60005b83811015610ad0578082015181840152602081019050610ab5565b60008484015250505050565b6000610aef610aea84610a81565b610a66565b905082815260208101848484011115610b0b57610b0a6109f0565b5b610b16848285610ab2565b509392505050565b600082601f830112610b3357610b326109eb565b5b8151610b43848260208601610adc565b91505092915050565b600081519050610b5b816106b0565b92915050565b60008115159050919050565b610b7681610b61565b8114610b8157600080fd5b50565b600081519050610b9381610b6d565b92915050565b600080600080600060a08688031215610bb557610bb4610694565b5b600086015167ffffffffffffffff811115610bd357610bd2610699565b5b610bdf88828901610b1e565b955050602086015167ffffffffffffffff811115610c0057610bff610699565b5b610c0c88828901610b1e565b9450506040610c1d88828901610b4c565b9350506060610c2e88828901610b84565b9250506080610c3f888289016109a9565b9150509295509295909350565b6000604082019050610c616000830185610713565b610c6e6020830184610713565b9392505050565b6000606082019050610c8a6000830186610713565b610c976020830185610713565b610ca46040830184610713565b949350505050565b7f4e487b7100000000000000000000000000000000000000000000000000000000600052603260045260246000fdfea2646970667358221220f77316cdeeaa63fbbe92e270e5deeceb224e19fbbf66d4068c0cecbbb346004964736f6c63430008140033",
  "linkReferences": {},
  "deployedLinkReferences": {}
}