{
  "_format": "hh-sol-artifact-1",
  "contractName": "ProductRegistrationContract",
  "sourceName": "contracts/ProductRegistrationContract.sol",
  "abi": [
    {
      "inputs": [
        {
          "internalType": "address",
          "name": "_userContract",
          "type": "address"
        }
      ],
      "stateMutability": "nonpayable",
      "type": "constructor"
    },
    {
      "anonymous": false,
      "inputs": [
        {
          "indexed": true,
          "internalType": "uint256",
          "name": "productId",
          "type": "uint256"
        },
        {
          "indexed": true,
          "internalType": "uint256",
          "name": "oldCustodyId",
          "type": "uint256"
        },
        {
          "indexed": true,
          "internalType": "uint256",
          "name": "newCustodyId",
          "type": "uint256"
        }
      ],
      "name": "CustodyChanged",
      "type": "event"
    },
    {
      "anonymous": false,
      "inputs": [
        {
          "indexed": true,
          "internalType": "uint256",
          "name": "productId",
          "type": "uint256"
        },
        {
          "indexed": true,
          "internalType": "uint256",
          "name": "custodyId",
          "type": "uint256"
        },
        {
          "indexed": false,
          "internalType": "string",
          "name": "name",
          "type": "string"
        },
        {
          "indexed": false,
          "internalType": "string",
          "name": "metadataHash",
          "type": "string"
        }
      ],
      "name": "ProductRegistered",
      "type": "event"
    },
    {
      "anonymous": false,
      "inputs": [
        {
          "indexed": true,
          "internalType": "uint256",
          "name": "productId",
          "type": "uint256"
        },
        {
          "indexed": false,
          "internalType": "bool",
          "name": "isActive",
          "type": "bool"
        }
      ],
      "name": "ProductStatusChanged",
      "type": "event"
    },
    {
      "anonymous": false,
      "inputs": [
        {
          "indexed": true,
          "internalType": "uint256",
          "name": "productId",
          "type": "uint256"
        },
        {
          "indexed": false,
          "internalType": "string",
          "name": "name",
          "type": "string"
        },
        {
          "indexed": false,
          "internalType": "string",
          "name": "metadataHash",
          "type": "string"
        }
      ],
      "name": "ProductUpdated",
      "type": "event"
    },
    {
      "inputs": [
        {
          "internalType": "uint256",
          "name": "id",
          "type": "uint256"
        }
      ],
      "name": "getProduct",
      "outputs": [
        {
          "internalType": "string",
          "name": "name",
          "type": "string"
        },
        {
          "internalType": "string",
          "name": "metadataHash",
          "type": "string"
        },
        {
          "internalType": "address",
          "name": "producer",
          "type": "address"
        },
        {
          "internalType": "bool",
          "name": "isActive",
          "type": "bool"
        },
        {
          "internalType": "uint256",
          "name": "custodyId",
          "type": "uint256"
        }
      ],
      "stateMutability": "view",
      "type": "function"
    },
    {
      "inputs": [
        {
          "internalType": "address",
          "name": "who",
          "type": "address"
        }
      ],
      "name": "getUserId",
      "outputs": [
        {
          "internalType": "uint256",
          "name": "",
          "type": "uint256"
        }
      ],
      "stateMutability": "view",
      "type": "function"
    },
    {
      "inputs": [],
      "name": "nextProductId",
      "outputs": [
        {
          "internalType": "uint256",
          "name": "",
          "type": "uint256"
        }
      ],
      "stateMutability": "view",
      "type": "function"
    },
    {
      "inputs": [
        {
          "internalType": "uint256",
          "name": "",
          "type": "uint256"
        }
      ],
      "name": "products",
      "outputs": [
        {
          "internalType": "string",
          "name": "name",
          "type": "string"
        },
        {
          "internalType": "string",
          "name": "metadataHash",
          "type": "string"
        },
        {
          "internalType": "address",
          "name": "producer",
          "type": "address"
        },
        {
          "internalType": "bool",
          "name": "isActive",
          "type": "bool"
        },
        {
          "internalType": "uint256",
          "name": "custodyId",
          "type": "uint256"
        }
      ],
      "stateMutability": "view",
      "type": "function"
    },
    {
      "inputs": [
        {
          "internalType": "string",
          "name": "name",
          "type": "string"
        },
        {
          "internalType": "string",
          "name": "metadataHash",
          "type": "string"
        },
        {
          "internalType": "uint256",
          "name": "initialCustodyId",
          "type": "uint256"
        }
      ],
      "name": "registerProduct",
      "outputs": [
        {
          "internalType": "uint256",
          "name": "",
          "type": "uint256"
        }
      ],
      "stateMutability": "nonpayable",
      "type": "function"
    },
    {
      "inputs": [
        {
          "internalType": "uint256",
          "name": "id",
          "type": "uint256"
        },
        {
          "internalType": "bool",
          "name": "active",
          "type": "bool"
        }
      ],
      "name": "setProductActive",
      "outputs": [],
      "stateMutability": "nonpayable",
      "type": "function"
    },
    {
      "inputs": [
        {
          "internalType": "uint256",
          "name": "id",
          "type": "uint256"
        },
        {
          "internalType": "uint256",
          "name": "newCustodyId",
          "type": "uint256"
        }
      ],
      "name": "transferCustody",
      "outputs": [],
      "stateMutability": "nonpayable",
      "type": "function"
    },
    {
      "inputs": [
        {
          "internalType": "uint256",
          "name": "id",
          "type": "uint256"
        },
        {
          "internalType": "string",
          "name": "name",
          "type": "string"
        },
        {
          "internalType": "string",
          "name": "metadataHash",
          "type": "string"
        }
      ],
      "name": "updateProduct",
      "outputs": [],
      "stateMutability": "nonpayable",
      "type": "function"
    },
    {
      "inputs": [],
      "name": "userContract",
      "outputs": [
        {
          "internalType": "contract UserRegistrationContract",
          "name": "",
          "type": "address"
        }
      ],
      "stateMutability": "view",
      "type": "function"
    }
  ],
  "bytecode": "0x6080604052600180553480156200001557600080fd5b50604051620016783803806200167883398181016040528101906200003b9190620000ed565b80600260006101000a81548173ffffffffffffffffffffffffffffffffffffffff021916908373ffffffffffffffffffffffffffffffffffffffff160217905550506200011f565b600080fd5b600073ffffffffffffffffffffffffffffffffffffffff82169050919050565b6000620000b58262000088565b9050919050565b620000c781620000a8565b8114620000d357600080fd5b50565b600081519050620000e781620000bc565b92915050565b60006020828403121562000106576200010562000083565b5b60006200011684828501620000d6565b91505092915050565b611549806200012f6000396000f3fe608060405234801561001057600080fd5b50600436106100935760003560e01c80635000596b116100665780635000596b146101325780637acc0b20146101505780638106208014610184578063b9db15b4146101a0578063fd335942146101d457610093565b80630ecbabff146100985780632b956ff7146100b45780633153a15b146100e45780634de91a6314610114575b600080fd5b6100b260048036038101906100ad9190610aaa565b6101f0565b005b6100ce60048036038101906100c99190610b9d565b610300565b6040516100db9190610bd9565b60405180910390f35b6100fe60048036038101906100f99190610bf4565b6103a5565b60405161010b9190610bd9565b60405180910390f35b61011c610613565b6040516101299190610bd9565b60405180910390f35b61013a610619565b6040516101479190610ce8565b60405180910390f35b61016a60048036038101906101659190610d03565b61063f565b60405161017b959493929190610dea565b60405180910390f35b61019e60048036038101906101999190610e77565b6107b2565b005b6101ba60048036038101906101b59190610d03565b61081b565b6040516101cb959493929190610dea565b60405180910390f35b6101ee60048036038101906101e99190610eb7565b6109a8565b005b60008484905011610236576040517f08c379a000000000000000000000000000000000000000000000000000000000815260040161022d90610f43565b60405180910390fd5b6000828290501161027c576040517f08c379a000000000000000000000000000000000000000000000000000000000815260040161027390610faf565b60405180910390fd5b6000806000878152602001908152602001600020905084848260000191826102a592919061120b565b5082828260010191826102b992919061120b565b50857f7271245d4c0e6ecb7b215a1e937a2779d1aeb51318c042c9b05d0a446a588009868686866040516102f09493929190611317565b60405180910390a2505050505050565b6000600260009054906101000a900473ffffffffffffffffffffffffffffffffffffffff1673ffffffffffffffffffffffffffffffffffffffff16632b956ff7836040518263ffffffff1660e01b815260040161035d9190611352565b602060405180830381865afa15801561037a573d6000803e3d6000fd5b505050506040513d601f19601f8201168201806040525081019061039e9190611382565b9050919050565b60008086869050116103ec576040517f08c379a00000000000000000000000000000000000000000000000000000000081526004016103e390610f43565b60405180910390fd5b60008484905011610432576040517f08c379a000000000000000000000000000000000000000000000000000000000815260040161042990610faf565b60405180910390fd5b600060016000815480929190610447906113de565b9190505590506040518060a0016040528088888080601f016020809104026020016040519081016040528093929190818152602001838380828437600081840152601f19601f82011690508083019250505050505050815260200186868080601f016020809104026020016040519081016040528093929190818152602001838380828437600081840152601f19601f8201169050808301925050505050505081526020013373ffffffffffffffffffffffffffffffffffffffff16815260200160011515815260200184815250600080838152602001908152602001600020600082015181600001908161053c9190611426565b5060208201518160010190816105529190611426565b5060408201518160020160006101000a81548173ffffffffffffffffffffffffffffffffffffffff021916908373ffffffffffffffffffffffffffffffffffffffff16021790555060608201518160020160146101000a81548160ff0219169083151502179055506080820151816003015590505082817f1b9b611385b23d45f77f79a6cff9f0997f16001ddd7f7c2c7d0eb8a7011d3de4898989896040516105fe9493929190611317565b60405180910390a38091505095945050505050565b60015481565b600260009054906101000a900473ffffffffffffffffffffffffffffffffffffffff1681565b600060205280600052604060002060009150905080600001805461066290611038565b80601f016020809104026020016040519081016040528092919081815260200182805461068e90611038565b80156106db5780601f106106b0576101008083540402835291602001916106db565b820191906000526020600020905b8154815290600101906020018083116106be57829003601f168201915b5050505050908060010180546106f090611038565b80601f016020809104026020016040519081016040528092919081815260200182805461071c90611038565b80156107695780601f1061073e57610100808354040283529160200191610769565b820191906000526020600020905b81548152906001019060200180831161074c57829003601f168201915b5050505050908060020160009054906101000a900473ffffffffffffffffffffffffffffffffffffffff16908060020160149054906101000a900460ff16908060030154905085565b8060008084815260200190815260200160002060020160146101000a81548160ff021916908315150217905550817f294753ecc63751eea2a69294d96d2d0e5e190f6e4bc85db582e73f8a74e1c6028260405161080f91906114f8565b60405180910390a25050565b606080600080600080600080888152602001908152602001600020905080600001816001018260020160009054906101000a900473ffffffffffffffffffffffffffffffffffffffff168360020160149054906101000a900460ff16846003015484805461088890611038565b80601f01602080910402602001604051908101604052809291908181526020018280546108b490611038565b80156109015780601f106108d657610100808354040283529160200191610901565b820191906000526020600020905b8154815290600101906020018083116108e457829003601f168201915b5050505050945083805461091490611038565b80601f016020809104026020016040519081016040528092919081815260200182805461094090611038565b801561098d5780601f106109625761010080835404028352916020019161098d565b820191906000526020600020905b81548152906001019060200180831161097057829003601f168201915b50505050509350955095509550955095505091939590929450565b600080600084815260200190815260200160002090506000816003015490508282600301819055508281857f438e5427eff2e48ea51751d38f23745d5058522750072c06001fd720d1e8ca0360405160405180910390a450505050565b600080fd5b600080fd5b6000819050919050565b610a2281610a0f565b8114610a2d57600080fd5b50565b600081359050610a3f81610a19565b92915050565b600080fd5b600080fd5b600080fd5b60008083601f840112610a6a57610a69610a45565b5b8235905067ffffffffffffffff811115610a8757610a86610a4a565b5b602083019150836001820283011115610aa357610aa2610a4f565b5b9250929050565b600080600080600060608688031215610ac657610ac5610a05565b5b6000610ad488828901610a30565b955050602086013567ffffffffffffffff811115610af557610af4610a0a565b5b610b0188828901610a54565b9450945050604086013567ffffffffffffffff811115610b2457610b23610a0a565b5b610b3088828901610a54565b92509250509295509295909350565b600073ffffffffffffffffffffffffffffffffffffffff82169050919050565b6000610b6a82610b3f565b9050919050565b610b7a81610b5f565b8114610b8557600080fd5b50565b600081359050610b9781610b71565b92915050565b600060208284031215610bb357610bb2610a05565b5b6000610bc184828501610b88565b91505092915050565b610bd381610a0f565b82525050565b6000602082019050610bee6000830184610bca565b92915050565b600080600080600060608688031215610c1057610c0f610a05565b5b600086013567ffffffffffffffff811115610c2e57610c2d610a0a565b5b610c3a88828901610a54565b9550955050602086013567ffffffffffffffff811115610c5d57610c5c610a0a565b5b610c6988828901610a54565b93509350506040610c7c88828901610a30565b9150509295509295909350565b6000819050919050565b6000610cae610ca9610ca484610b3f565b610c89565b610b3f565b9050919050565b6000610cc082610c93565b9050919050565b6000610cd282610cb5565b9050919050565b610ce281610cc7565b82525050565b6000602082019050610cfd6000830184610cd9565b92915050565b600060208284031215610d1957610d18610a05565b5b6000610d2784828501610a30565b91505092915050565b600081519050919050565b600082825260208201905092915050565b60005b83811015610d6a578082015181840152602081019050610d4f565b60008484015250505050565b6000601f19601f8301169050919050565b6000610d9282610d30565b610d9c8185610d3b565b9350610dac818560208601610d4c565b610db581610d76565b840191505092915050565b610dc981610b5f565b82525050565b60008115159050919050565b610de481610dcf565b82525050565b600060a0820190508181036000830152610e048188610d87565b90508181036020830152610e188187610d87565b9050610e276040830186610dc0565b610e346060830185610ddb565b610e416080830184610bca565b9695505050505050565b610e5481610dcf565b8114610e5f57600080fd5b50565b600081359050610e7181610e4b565b92915050565b60008060408385031215610e8e57610e8d610a05565b5b6000610e9c85828601610a30565b9250506020610ead85828601610e62565b9150509250929050565b60008060408385031215610ece57610ecd610a05565b5b6000610edc85828601610a30565b9250506020610eed85828601610a30565b9150509250929050565b7f4e616d6520726571756972656400000000000000000000000000000000000000600082015250565b6000610f2d600d83610d3b565b9150610f3882610ef7565b602082019050919050565b60006020820190508181036000830152610f5c81610f20565b9050919050565b7f4d65746164617461206861736820726571756972656400000000000000000000600082015250565b6000610f99601683610d3b565b9150610fa482610f63565b602082019050919050565b60006020820190508181036000830152610fc881610f8c565b9050919050565b600082905092915050565b7f4e487b7100000000000000000000000000000000000000000000000000000000600052604160045260246000fd5b7f4e487b7100000000000000000000000000000000000000000000000000000000600052602260045260246000fd5b6000600282049050600182168061105057607f821691505b60208210810361106357611062611009565b5b50919050565b60008190508160005260206000209050919050565b60006020601f8301049050919050565b600082821b905092915050565b6000600883026110cb7fffffffffffffffffffffffffffffffffffffffffffffffffffffffffffffffff8261108e565b6110d5868361108e565b95508019841693508086168417925050509392505050565b60006111086111036110fe84610a0f565b610c89565b610a0f565b9050919050565b6000819050919050565b611122836110ed565b61113661112e8261110f565b84845461109b565b825550505050565b600090565b61114b61113e565b611156818484611119565b505050565b5b8181101561117a5761116f600082611143565b60018101905061115c565b5050565b601f8211156111bf5761119081611069565b6111998461107e565b810160208510156111a8578190505b6111bc6111b48561107e565b83018261115b565b50505b505050565b600082821c905092915050565b60006111e2600019846008026111c4565b1980831691505092915050565b60006111fb83836111d1565b9150826002028217905092915050565b6112158383610fcf565b67ffffffffffffffff81111561122e5761122d610fda565b5b6112388254611038565b61124382828561117e565b6000601f8311600181146112725760008415611260578287013590505b61126a85826111ef565b8655506112d2565b601f19841661128086611069565b60005b828110156112a857848901358255600182019150602085019450602081019050611283565b868310156112c557848901356112c1601f8916826111d1565b8355505b6001600288020188555050505b50505050505050565b82818337600083830152505050565b60006112f68385610d3b565b93506113038385846112db565b61130c83610d76565b840190509392505050565b600060408201905081810360008301526113328186886112ea565b905081810360208301526113478184866112ea565b905095945050505050565b60006020820190506113676000830184610dc0565b92915050565b60008151905061137c81610a19565b92915050565b60006020828403121561139857611397610a05565b5b60006113a68482850161136d565b91505092915050565b7f4e487b7100000000000000000000000000000000000000000000000000000000600052601160045260246000fd5b60006113e982610a0f565b91507fffffffffffffffffffffffffffffffffffffffffffffffffffffffffffffffff820361141b5761141a6113af565b5b600182019050919050565b61142f82610d30565b67ffffffffffffffff81111561144857611447610fda565b5b6114528254611038565b61145d82828561117e565b600060209050601f831160018114611490576000841561147e578287015190505b61148885826111ef565b8655506114f0565b601f19841661149e86611069565b60005b828110156114c6578489015182556001820191506020850194506020810190506114a1565b868310156114e357848901516114df601f8916826111d1565b8355505b6001600288020188555050505b505050505050565b600060208201905061150d6000830184610ddb565b9291505056fea26469706673582212207539d71eba52d0c693f367112057a3407676cb3d76c1c58f77d915db521fb4ce64736f6c63430008140033",
  "linkReferences": {},
  "deployedLinkReferences": {}
}